{
  "transactions": [
    {
      "hash": "0x54451d7f118e2b276632a1590ab90fdf22203047efc04f56364170a79f6f55d7",
      "transactionType": "CALL",
      "contractName": null,
      "contractAddress": "0xb92b18bd8c215a1a641cee37eb1d3d1159b78a01",
      "function": "setConfigId(bytes32)",
      "arguments": [
        "0x05e0c849fd08a01f247c8f268731bdcd1f129626e23e6d94d932213b066bc8f7"
      ],
      "transaction": {
        "from": "0x020f19bae8af4339d707fbdaa09c454e5d13aee2",
        "to": "0xb92b18bd8c215a1a641cee37eb1d3d1159b78a01",
        "gas": "0xfa13",
        "value": "0x0",
        "input": "0xc385abae05e0c849fd08a01f247c8f268731bdcd1f129626e23e6d94d932213b066bc8f7",
        "nonce": "0xc",
        "chainId": "0xaef3"
      },
      "additionalContracts": [],
      "isFixedGasLimit": false
    },
    {
      "hash": "0xf9cbda1feb0907c3bb9621425856c223fe000470792273a55832880aa834b6b3",
      "transactionType": "CALL",
      "contractName": null,
      "contractAddress": "0xb92b18bd8c215a1a641cee37eb1d3d1159b78a01",
      "function": "setScope(uint256)",
      "arguments": [
        "0"
      ],
      "transaction": {
        "from": "0x020f19bae8af4339d707fbdaa09c454e5d13aee2",
        "to": "0xb92b18bd8c215a1a641cee37eb1d3d1159b78a01",
        "gas": "0x87fe",
        "value": "0x0",
        "input": "0xb4ba6ff90000000000000000000000000000000000000000000000000000000000000000",
        "nonce": "0xd",
        "chainId": "0xaef3"
      },
      "additionalContracts": [],
      "isFixedGasLimit": false
    },
    {
      "hash": "0x7ed106b97ad081cf43e20c6cb0e57e00897d0e6b8892e02f0a81b708dec71a62",
      "transactionType": "CALL",
      "contractName": null,
      "contractAddress": "0xb92b18bd8c215a1a641cee37eb1d3d1159b78a01",
      "function": "setDestinationReceiver(uint64,address)",
      "arguments": [
        "16015286601757825753",
        "0xaa50ACdF785E28beBf760999a256b05300bC82A7"
      ],
      "transaction": {
        "from": "0x020f19bae8af4339d707fbdaa09c454e5d13aee2",
        "to": "0xb92b18bd8c215a1a641cee37eb1d3d1159b78a01",
        "gas": "0x174ad",
        "value": "0x0",
        "input": "0x51617ffe000000000000000000000000000000000000000000000000de41ba4fc9d91ad9000000000000000000000000aa50acdf785e28bebf760999a256b05300bc82a7",
        "nonce": "0xe",
        "chainId": "0xaef3"
      },
      "additionalContracts": [],
      "isFixedGasLimit": false
    }
  ],
  "receipts": [
    {
      "status": "0x1",
      "cumulativeGasUsed": "0x168fa",
      "logs": [],
      "logsBloom": "0x00000000000000000000000000000000000000000000000000000000000000000000000000000000000000000000000000000000000000000000000000000000000000000000000000000000000000000000000000000000000000000000000000000000000000000000000000000000000000000000000000000000000000000000000000000000000000000000000000000000000000000000000000000000000000000000000000000000000000000000000000000000000000000000000000000000000000000000000000000000000000000000000000000000000000000000000000000000000000000000000000000000000000000000000000000000",
      "type": "0x0",
      "transactionHash": "0x54451d7f118e2b276632a1590ab90fdf22203047efc04f56364170a79f6f55d7",
      "transactionIndex": "0x1",
      "blockHash": "0xff2885f48ea01d1553734eff644d2ec99c37df0c39fdf96af46cf37c7f594144",
      "blockNumber": "0x3071f46",
      "gasUsed": "0xb50e",
      "effectiveGasPrice": "0x5d22cfc40",
      "from": "0x020f19bae8af4339d707fbdaa09c454e5d13aee2",
      "to": "0xb92b18bd8c215a1a641cee37eb1d3d1159b78a01",
      "contractAddress": null,
      "l1BaseFeeScalar": "0x0",
      "l1BlobBaseFee": "0x1",
      "l1BlobBaseFeeScalar": "0x0",
      "l1Fee": "0x0",
      "l1GasPrice": "0x5329",
      "l1GasUsed": "0x640"
    },
    {
      "status": "0x1",
      "cumulativeGasUsed": "0x1cb6f",
      "logs": [
        {
          "address": "0xb92b18bd8c215a1a641cee37eb1d3d1159b78a01",
          "topics": [
            "0x379705e49518633184cc7e64f6a0c9361e35f275be47634afb6c2c603e5311e5",
            "0x0000000000000000000000000000000000000000000000000000000000000000"
          ],
          "data": "0x",
          "blockHash": "0xff2885f48ea01d1553734eff644d2ec99c37df0c39fdf96af46cf37c7f594144",
          "blockNumber": "0x3071f46",
          "transactionHash": "0xf9cbda1feb0907c3bb9621425856c223fe000470792273a55832880aa834b6b3",
          "transactionIndex": "0x2",
          "logIndex": "0x0",
          "removed": false
        }
      ],
      "logsBloom": "0x00000000000000000000000000000000000000000000000000000000000000000008000000000000000000000000000000000000000000000000000000000000000000000000020000000000000000000000000000000000001000000000000002000000020000000000000000000800000000000000000000000000000000000000000000000000000000000000000000000000000200000000000000000000000000000000000000000000000000000000000000000001000000000000000000000000000000000000000000000000000000000000000000000000000020000000000000000000000000000000000000000000000000000000000000000000",
      "type": "0x0",
      "transactionHash": "0xf9cbda1feb0907c3bb9621425856c223fe000470792273a55832880aa834b6b3",
      "transactionIndex": "0x2",
      "blockHash": "0xff2885f48ea01d1553734eff644d2ec99c37df0c39fdf96af46cf37c7f594144",
      "blockNumber": "0x3071f46",
      "gasUsed": "0x6275",
      "effectiveGasPrice": "0x5d22cfc40",
      "from": "0x020f19bae8af4339d707fbdaa09c454e5d13aee2",
      "to": "0xb92b18bd8c215a1a641cee37eb1d3d1159b78a01",
      "contractAddress": null,
      "l1BaseFeeScalar": "0x0",
      "l1BlobBaseFee": "0x1",
      "l1BlobBaseFeeScalar": "0x0",
      "l1Fee": "0x0",
      "l1GasPrice": "0x5329",
      "l1GasUsed": "0x640"
    },
    {
      "status": "0x1",
      "cumulativeGasUsed": "0x2d93f",
      "logs": [],
      "logsBloom": "0x00000000000000000000000000000000000000000000000000000000000000000000000000000000000000000000000000000000000000000000000000000000000000000000000000000000000000000000000000000000000000000000000000000000000000000000000000000000000000000000000000000000000000000000000000000000000000000000000000000000000000000000000000000000000000000000000000000000000000000000000000000000000000000000000000000000000000000000000000000000000000000000000000000000000000000000000000000000000000000000000000000000000000000000000000000000",
      "type": "0x0",
      "transactionHash": "0x7ed106b97ad081cf43e20c6cb0e57e00897d0e6b8892e02f0a81b708dec71a62",
      "transactionIndex": "0x3",
      "blockHash": "0xff2885f48ea01d1553734eff644d2ec99c37df0c39fdf96af46cf37c7f594144",
      "blockNumber": "0x3071f46",
      "gasUsed": "0x10dd0",
      "effectiveGasPrice": "0x5d22cfc40",
      "from": "0x020f19bae8af4339d707fbdaa09c454e5d13aee2",
      "to": "0xb92b18bd8c215a1a641cee37eb1d3d1159b78a01",
      "contractAddress": null,
      "l1BaseFeeScalar": "0x0",
      "l1BlobBaseFee": "0x1",
      "l1BlobBaseFeeScalar": "0x0",
      "l1Fee": "0x0",
      "l1GasPrice": "0x5329",
      "l1GasUsed": "0x640"
    }
  ],
  "libraries": [],
  "pending": [],
  "returns": {},
  "timestamp": 1751753728,
  "chain": 44787,
  "commit": "c5748e1"
}