{
  "transactions": [
    {
      "hash": "0xfea2aa86d17141792925b6ef02ca6afc98897d03bc139835943507564fa3fbfe",
      "transactionType": "CALL",
      "contractName": null,
      "contractAddress": "0x59a85c1ef49fa7ddcbdf11d90b250a1daa3e63d1",
      "function": "setConfigId(bytes32)",
      "arguments": [
        "0x05e0c849fd08a01f247c8f268731bdcd1f129626e23e6d94d932213b066bc8f7"
      ],
      "transaction": {
        "from": "0x020f19bae8af4339d707fbdaa09c454e5d13aee2",
        "to": "0x59a85c1ef49fa7ddcbdf11d90b250a1daa3e63d1",
        "gas": "0xfa13",
        "value": "0x0",
        "input": "0xc385abae05e0c849fd08a01f247c8f268731bdcd1f129626e23e6d94d932213b066bc8f7",
        "nonce": "0x1f",
        "chainId": "0xaef3"
      },
      "additionalContracts": [],
      "isFixedGasLimit": false
    },
    {
      "hash": "0x233834a3db1dca822fa7c037a58fe6e13301841771987f560e57dbfe58e19f01",
      "transactionType": "CALL",
      "contractName": null,
      "contractAddress": "0x59a85c1ef49fa7ddcbdf11d90b250a1daa3e63d1",
      "function": "setScope(uint256)",
      "arguments": [
        "0"
      ],
      "transaction": {
        "from": "0x020f19bae8af4339d707fbdaa09c454e5d13aee2",
        "to": "0x59a85c1ef49fa7ddcbdf11d90b250a1daa3e63d1",
        "gas": "0x87fe",
        "value": "0x0",
        "input": "0xb4ba6ff90000000000000000000000000000000000000000000000000000000000000000",
        "nonce": "0x20",
        "chainId": "0xaef3"
      },
      "additionalContracts": [],
      "isFixedGasLimit": false
    },
    {
      "hash": "0xbb1e98aefd49142841be683882430370c010e781f3da05941632f18fd39283ea",
      "transactionType": "CALL",
      "contractName": null,
      "contractAddress": "0x59a85c1ef49fa7ddcbdf11d90b250a1daa3e63d1",
      "function": "setDestinationReceiver(uint64,address)",
      "arguments": [
        "16015286601757825753",
        "0x98f65D5D44d261031E4B5b65e53efAce2b96a4DC"
      ],
      "transaction": {
        "from": "0x020f19bae8af4339d707fbdaa09c454e5d13aee2",
        "to": "0x59a85c1ef49fa7ddcbdf11d90b250a1daa3e63d1",
        "gas": "0x1749f",
        "value": "0x0",
        "input": "0x51617ffe000000000000000000000000000000000000000000000000de41ba4fc9d91ad900000000000000000000000098f65d5d44d261031e4b5b65e53eface2b96a4dc",
        "nonce": "0x21",
        "chainId": "0xaef3"
      },
      "additionalContracts": [],
      "isFixedGasLimit": false
    }
  ],
  "receipts": [
    {
      "status": "0x1",
      "cumulativeGasUsed": "0x1abc6",
      "logs": [],
      "logsBloom": "0x00000000000000000000000000000000000000000000000000000000000000000000000000000000000000000000000000000000000000000000000000000000000000000000000000000000000000000000000000000000000000000000000000000000000000000000000000000000000000000000000000000000000000000000000000000000000000000000000000000000000000000000000000000000000000000000000000000000000000000000000000000000000000000000000000000000000000000000000000000000000000000000000000000000000000000000000000000000000000000000000000000000000000000000000000000000",
      "type": "0x0",
      "transactionHash": "0xfea2aa86d17141792925b6ef02ca6afc98897d03bc139835943507564fa3fbfe",
      "transactionIndex": "0x1",
      "blockHash": "0x560a013ba6aa9a5062620ae4a7caa9fd417a0c724bd364f601bfaf764dea0d8d",
      "blockNumber": "0x3075b2f",
      "gasUsed": "0xb50e",
      "effectiveGasPrice": "0x5d22cfc40",
      "from": "0x020f19bae8af4339d707fbdaa09c454e5d13aee2",
      "to": "0x59a85c1ef49fa7ddcbdf11d90b250a1daa3e63d1",
      "contractAddress": null,
      "l1BaseFeeScalar": "0x0",
      "l1BlobBaseFee": "0x1",
      "l1BlobBaseFeeScalar": "0x0",
      "l1Fee": "0x0",
      "l1GasPrice": "0x5420",
      "l1GasUsed": "0x640"
    },
    {
      "status": "0x1",
      "cumulativeGasUsed": "0x20e3b",
      "logs": [
        {
          "address": "0x59a85c1ef49fa7ddcbdf11d90b250a1daa3e63d1",
          "topics": [
            "0x379705e49518633184cc7e64f6a0c9361e35f275be47634afb6c2c603e5311e5",
            "0x0000000000000000000000000000000000000000000000000000000000000000"
          ],
          "data": "0x",
          "blockHash": "0x560a013ba6aa9a5062620ae4a7caa9fd417a0c724bd364f601bfaf764dea0d8d",
          "blockNumber": "0x3075b2f",
          "transactionHash": "0x233834a3db1dca822fa7c037a58fe6e13301841771987f560e57dbfe58e19f01",
          "transactionIndex": "0x2",
          "logIndex": "0x0",
          "removed": false
        }
      ],
      "logsBloom": "0x00000000000000000000000000000000000000000000000000000000000000000000000000000000000000000000000000000000000000000000000000000000000000000000020000000000000000000000000000000000001000000000000000000000020002000000000000000800000000000000000000000000000000000000000000000000000000000000000000000000000000000000000000000000000000000000020000000000000000000000000000000001000000000000000000000000000000000000000000000000000000000000000000000800000020000000000000000000000000000000000000000000000000000000000000000000",
      "type": "0x0",
      "transactionHash": "0x233834a3db1dca822fa7c037a58fe6e13301841771987f560e57dbfe58e19f01",
      "transactionIndex": "0x2",
      "blockHash": "0x560a013ba6aa9a5062620ae4a7caa9fd417a0c724bd364f601bfaf764dea0d8d",
      "blockNumber": "0x3075b2f",
      "gasUsed": "0x6275",
      "effectiveGasPrice": "0x5d22cfc40",
      "from": "0x020f19bae8af4339d707fbdaa09c454e5d13aee2",
      "to": "0x59a85c1ef49fa7ddcbdf11d90b250a1daa3e63d1",
      "contractAddress": null,
      "l1BaseFeeScalar": "0x0",
      "l1BlobBaseFee": "0x1",
      "l1BlobBaseFeeScalar": "0x0",
      "l1Fee": "0x0",
      "l1GasPrice": "0x5420",
      "l1GasUsed": "0x640"
    },
    {
      "status": "0x1",
      "cumulativeGasUsed": "0x31c01",
      "logs": [],
      "logsBloom": "0x00000000000000000000000000000000000000000000000000000000000000000000000000000000000000000000000000000000000000000000000000000000000000000000000000000000000000000000000000000000000000000000000000000000000000000000000000000000000000000000000000000000000000000000000000000000000000000000000000000000000000000000000000000000000000000000000000000000000000000000000000000000000000000000000000000000000000000000000000000000000000000000000000000000000000000000000000000000000000000000000000000000000000000000000000000000",
      "type": "0x0",
      "transactionHash": "0xbb1e98aefd49142841be683882430370c010e781f3da05941632f18fd39283ea",
      "transactionIndex": "0x3",
      "blockHash": "0x560a013ba6aa9a5062620ae4a7caa9fd417a0c724bd364f601bfaf764dea0d8d",
      "blockNumber": "0x3075b2f",
      "gasUsed": "0x10dc6",
      "effectiveGasPrice": "0x5d22cfc40",
      "from": "0x020f19bae8af4339d707fbdaa09c454e5d13aee2",
      "to": "0x59a85c1ef49fa7ddcbdf11d90b250a1daa3e63d1",
      "contractAddress": null,
      "l1BaseFeeScalar": "0x0",
      "l1BlobBaseFee": "0x1",
      "l1BlobBaseFeeScalar": "0x0",
      "l1Fee": "0x0",
      "l1GasPrice": "0x5420",
      "l1GasUsed": "0x640"
    }
  ],
  "libraries": [],
  "pending": [],
  "returns": {},
  "timestamp": 1751769065,
  "chain": 44787,
  "commit": "5835c7d"
}