{
  "transactions": [
    {
      "hash": "0x7bc1c24835ebd3d855d8e9908f300ccd342b8c79ae34d6f982e06f968eb2304f",
      "transactionType": "CALL",
      "contractName": null,
      "contractAddress": "0x02cb960aeacb8325da67ee3f34d82b5ac84eb8cb",
      "function": "setConfigId(bytes32)",
      "arguments": [
        "0x05e0c849fd08a01f247c8f268731bdcd1f129626e23e6d94d932213b066bc8f7"
      ],
      "transaction": {
        "from": "0x020f19bae8af4339d707fbdaa09c454e5d13aee2",
        "to": "0x02cb960aeacb8325da67ee3f34d82b5ac84eb8cb",
        "gas": "0xfa13",
        "value": "0x0",
        "input": "0xc385abae05e0c849fd08a01f247c8f268731bdcd1f129626e23e6d94d932213b066bc8f7",
        "nonce": "0x18",
        "chainId": "0xaef3"
      },
      "additionalContracts": [],
      "isFixedGasLimit": false
    },
    {
      "hash": "0x3ac25bfa2a5cee76c761f38ac73028e458fda55b9f69dae514305f32b323b85a",
      "transactionType": "CALL",
      "contractName": null,
      "contractAddress": "0x02cb960aeacb8325da67ee3f34d82b5ac84eb8cb",
      "function": "setScope(uint256)",
      "arguments": [
        "0"
      ],
      "transaction": {
        "from": "0x020f19bae8af4339d707fbdaa09c454e5d13aee2",
        "to": "0x02cb960aeacb8325da67ee3f34d82b5ac84eb8cb",
        "gas": "0x87fe",
        "value": "0x0",
        "input": "0xb4ba6ff90000000000000000000000000000000000000000000000000000000000000000",
        "nonce": "0x19",
        "chainId": "0xaef3"
      },
      "additionalContracts": [],
      "isFixedGasLimit": false
    },
    {
      "hash": "0x6126ce0f28a397e1f8014310176ead360e1ab86592e79dfa23ca7f2a17f00cdd",
      "transactionType": "CALL",
      "contractName": null,
      "contractAddress": "0x02cb960aeacb8325da67ee3f34d82b5ac84eb8cb",
      "function": "setDestinationReceiver(uint64,address)",
      "arguments": [
        "16015286601757825753",
        "0xadF2E96d1E68Ef450E0a6c0a16bF75F37D2217E8"
      ],
      "transaction": {
        "from": "0x020f19bae8af4339d707fbdaa09c454e5d13aee2",
        "to": "0x02cb960aeacb8325da67ee3f34d82b5ac84eb8cb",
        "gas": "0x174bd",
        "value": "0x0",
        "input": "0x51617ffe000000000000000000000000000000000000000000000000de41ba4fc9d91ad9000000000000000000000000adf2e96d1e68ef450e0a6c0a16bf75f37d2217e8",
        "nonce": "0x1a",
        "chainId": "0xaef3"
      },
      "additionalContracts": [],
      "isFixedGasLimit": false
    }
  ],
  "receipts": [
    {
      "status": "0x1",
      "cumulativeGasUsed": "0x168fa",
      "logs": [],
      "logsBloom": "0x00000000000000000000000000000000000000000000000000000000000000000000000000000000000000000000000000000000000000000000000000000000000000000000000000000000000000000000000000000000000000000000000000000000000000000000000000000000000000000000000000000000000000000000000000000000000000000000000000000000000000000000000000000000000000000000000000000000000000000000000000000000000000000000000000000000000000000000000000000000000000000000000000000000000000000000000000000000000000000000000000000000000000000000000000000000",
      "type": "0x0",
      "transactionHash": "0x7bc1c24835ebd3d855d8e9908f300ccd342b8c79ae34d6f982e06f968eb2304f",
      "transactionIndex": "0x1",
      "blockHash": "0xae14e8ae9aabc2b1eccc36a11e7d077278e2ab66122d73bdf592dfad5afed8c5",
      "blockNumber": "0x3073714",
      "gasUsed": "0xb50e",
      "effectiveGasPrice": "0x5d22cfc40",
      "from": "0x020f19bae8af4339d707fbdaa09c454e5d13aee2",
      "to": "0x02cb960aeacb8325da67ee3f34d82b5ac84eb8cb",
      "contractAddress": null,
      "l1BaseFeeScalar": "0x0",
      "l1BlobBaseFee": "0x1",
      "l1BlobBaseFeeScalar": "0x0",
      "l1Fee": "0x0",
      "l1GasPrice": "0x6bff",
      "l1GasUsed": "0x640"
    },
    {
      "status": "0x1",
      "cumulativeGasUsed": "0x1cb6f",
      "logs": [
        {
          "address": "0x02cb960aeacb8325da67ee3f34d82b5ac84eb8cb",
          "topics": [
            "0x379705e49518633184cc7e64f6a0c9361e35f275be47634afb6c2c603e5311e5",
            "0x0000000000000000000000000000000000000000000000000000000000000000"
          ],
          "data": "0x",
          "blockHash": "0xae14e8ae9aabc2b1eccc36a11e7d077278e2ab66122d73bdf592dfad5afed8c5",
          "blockNumber": "0x3073714",
          "transactionHash": "0x3ac25bfa2a5cee76c761f38ac73028e458fda55b9f69dae514305f32b323b85a",
          "transactionIndex": "0x2",
          "logIndex": "0x0",
          "removed": false
        }
      ],
      "logsBloom": "0x00000000000000000000000000000000000000000000000000000000000000000000000000000000000000000010000000000000000000000000000000000000000000000000020000000000000000000000000000000000001000000000000000000000020000000000800000000800000000000000000000000000000000000000000000000000000000000000000000000000000000000000000000000000000000000000000000000000000000000000000000000001000000000000000000000000000000000000000000000000000000000000000000000000000020000000000000000000000000000000000000000000000000000000000000020000",
      "type": "0x0",
      "transactionHash": "0x3ac25bfa2a5cee76c761f38ac73028e458fda55b9f69dae514305f32b323b85a",
      "transactionIndex": "0x2",
      "blockHash": "0xae14e8ae9aabc2b1eccc36a11e7d077278e2ab66122d73bdf592dfad5afed8c5",
      "blockNumber": "0x3073714",
      "gasUsed": "0x6275",
      "effectiveGasPrice": "0x5d22cfc40",
      "from": "0x020f19bae8af4339d707fbdaa09c454e5d13aee2",
      "to": "0x02cb960aeacb8325da67ee3f34d82b5ac84eb8cb",
      "contractAddress": null,
      "l1BaseFeeScalar": "0x0",
      "l1BlobBaseFee": "0x1",
      "l1BlobBaseFeeScalar": "0x0",
      "l1Fee": "0x0",
      "l1GasPrice": "0x6bff",
      "l1GasUsed": "0x640"
    },
    {
      "status": "0x1",
      "cumulativeGasUsed": "0x2d94b",
      "logs": [],
      "logsBloom": "0x00000000000000000000000000000000000000000000000000000000000000000000000000000000000000000000000000000000000000000000000000000000000000000000000000000000000000000000000000000000000000000000000000000000000000000000000000000000000000000000000000000000000000000000000000000000000000000000000000000000000000000000000000000000000000000000000000000000000000000000000000000000000000000000000000000000000000000000000000000000000000000000000000000000000000000000000000000000000000000000000000000000000000000000000000000000",
      "type": "0x0",
      "transactionHash": "0x6126ce0f28a397e1f8014310176ead360e1ab86592e79dfa23ca7f2a17f00cdd",
      "transactionIndex": "0x3",
      "blockHash": "0xae14e8ae9aabc2b1eccc36a11e7d077278e2ab66122d73bdf592dfad5afed8c5",
      "blockNumber": "0x3073714",
      "gasUsed": "0x10ddc",
      "effectiveGasPrice": "0x5d22cfc40",
      "from": "0x020f19bae8af4339d707fbdaa09c454e5d13aee2",
      "to": "0x02cb960aeacb8325da67ee3f34d82b5ac84eb8cb",
      "contractAddress": null,
      "l1BaseFeeScalar": "0x0",
      "l1BlobBaseFee": "0x1",
      "l1BlobBaseFeeScalar": "0x0",
      "l1Fee": "0x0",
      "l1GasPrice": "0x6bff",
      "l1GasUsed": "0x640"
    }
  ],
  "libraries": [],
  "pending": [],
  "returns": {},
  "timestamp": 1751759822,
  "chain": 44787,
  "commit": "c5748e1"
}