{
  "transactions": [
    {
      "hash": "0x18824d522dfa26c17e76bbfba7204cc567f9564e2344e9bcd616f3c98eea1a07",
      "transactionType": "CALL",
      "contractName": null,
      "contractAddress": "0x3c7c16b216d8c4fc786ad38d8615200d9b34168c",
      "function": "setConfigId(bytes32)",
      "arguments": [
        "0x05e0c849fd08a01f247c8f268731bdcd1f129626e23e6d94d932213b066bc8f7"
      ],
      "transaction": {
        "from": "0x020f19bae8af4339d707fbdaa09c454e5d13aee2",
        "to": "0x3c7c16b216d8c4fc786ad38d8615200d9b34168c",
        "gas": "0xfa13",
        "value": "0x0",
        "input": "0xc385abae05e0c849fd08a01f247c8f268731bdcd1f129626e23e6d94d932213b066bc8f7",
        "nonce": "0x8",
        "chainId": "0xaef3"
      },
      "additionalContracts": [],
      "isFixedGasLimit": false
    },
    {
      "hash": "0x37078640ca2c29d4197171bc25a7f2616875b63686526317f5452218a254ab06",
      "transactionType": "CALL",
      "contractName": null,
      "contractAddress": "0x3c7c16b216d8c4fc786ad38d8615200d9b34168c",
      "function": "setScope(uint256)",
      "arguments": [
        "0"
      ],
      "transaction": {
        "from": "0x020f19bae8af4339d707fbdaa09c454e5d13aee2",
        "to": "0x3c7c16b216d8c4fc786ad38d8615200d9b34168c",
        "gas": "0x87fe",
        "value": "0x0",
        "input": "0xb4ba6ff90000000000000000000000000000000000000000000000000000000000000000",
        "nonce": "0x9",
        "chainId": "0xaef3"
      },
      "additionalContracts": [],
      "isFixedGasLimit": false
    },
    {
      "hash": "0x86aac6f60db4f00bb443cb57a0cd6fe81e39d163bedfcc4435912df71db369b7",
      "transactionType": "CALL",
      "contractName": null,
      "contractAddress": "0x3c7c16b216d8c4fc786ad38d8615200d9b34168c",
      "function": "setDestinationReceiver(uint64,address)",
      "arguments": [
        "16015286601757825753",
        "0xaa50ACdF785E28beBf760999a256b05300bC82A7"
      ],
      "transaction": {
        "from": "0x020f19bae8af4339d707fbdaa09c454e5d13aee2",
        "to": "0x3c7c16b216d8c4fc786ad38d8615200d9b34168c",
        "gas": "0x174ad",
        "value": "0x0",
        "input": "0x51617ffe000000000000000000000000000000000000000000000000de41ba4fc9d91ad9000000000000000000000000aa50acdf785e28bebf760999a256b05300bc82a7",
        "nonce": "0xa",
        "chainId": "0xaef3"
      },
      "additionalContracts": [],
      "isFixedGasLimit": false
    }
  ],
  "receipts": [
    {
      "status": "0x1",
      "cumulativeGasUsed": "0x168fa",
      "logs": [],
      "logsBloom": "0x00000000000000000000000000000000000000000000000000000000000000000000000000000000000000000000000000000000000000000000000000000000000000000000000000000000000000000000000000000000000000000000000000000000000000000000000000000000000000000000000000000000000000000000000000000000000000000000000000000000000000000000000000000000000000000000000000000000000000000000000000000000000000000000000000000000000000000000000000000000000000000000000000000000000000000000000000000000000000000000000000000000000000000000000000000000",
      "type": "0x0",
      "transactionHash": "0x18824d522dfa26c17e76bbfba7204cc567f9564e2344e9bcd616f3c98eea1a07",
      "transactionIndex": "0x1",
      "blockHash": "0x2835678e5221a00cec968e29bd235a0751e8dc8fc163e8e5f915acfb67467bd8",
      "blockNumber": "0x3071011",
      "gasUsed": "0xb50e",
      "effectiveGasPrice": "0x5d22cfc40",
      "from": "0x020f19bae8af4339d707fbdaa09c454e5d13aee2",
      "to": "0x3c7c16b216d8c4fc786ad38d8615200d9b34168c",
      "contractAddress": null,
      "l1BaseFeeScalar": "0x0",
      "l1BlobBaseFee": "0x1",
      "l1BlobBaseFeeScalar": "0x0",
      "l1Fee": "0x0",
      "l1GasPrice": "0x4abd",
      "l1GasUsed": "0x640"
    },
    {
      "status": "0x1",
      "cumulativeGasUsed": "0x1cb6f",
      "logs": [
        {
          "address": "0x3c7c16b216d8c4fc786ad38d8615200d9b34168c",
          "topics": [
            "0x379705e49518633184cc7e64f6a0c9361e35f275be47634afb6c2c603e5311e5",
            "0x0000000000000000000000000000000000000000000000000000000000000000"
          ],
          "data": "0x",
          "blockHash": "0x2835678e5221a00cec968e29bd235a0751e8dc8fc163e8e5f915acfb67467bd8",
          "blockNumber": "0x3071011",
          "transactionHash": "0x37078640ca2c29d4197171bc25a7f2616875b63686526317f5452218a254ab06",
          "transactionIndex": "0x2",
          "logIndex": "0x0",
          "removed": false
        }
      ],
      "logsBloom": "0x00000000000000000000000000000000000000000000000000000000000000000000000000000000000000000000000000000000000000000000000000000000000000000000020000000000000000000000000000000000001000000000008000000000020000000000000000000800000000000000000000000000000000000000000000000000000000000000000000000000000000000000000000000000000008000000000000000000000000000000000000000001000000000000000000001000000000000000000000000000000000000000000000000000000020000000000000000000000000000000000000000000000000000000000000000000",
      "type": "0x0",
      "transactionHash": "0x37078640ca2c29d4197171bc25a7f2616875b63686526317f5452218a254ab06",
      "transactionIndex": "0x2",
      "blockHash": "0x2835678e5221a00cec968e29bd235a0751e8dc8fc163e8e5f915acfb67467bd8",
      "blockNumber": "0x3071011",
      "gasUsed": "0x6275",
      "effectiveGasPrice": "0x5d22cfc40",
      "from": "0x020f19bae8af4339d707fbdaa09c454e5d13aee2",
      "to": "0x3c7c16b216d8c4fc786ad38d8615200d9b34168c",
      "contractAddress": null,
      "l1BaseFeeScalar": "0x0",
      "l1BlobBaseFee": "0x1",
      "l1BlobBaseFeeScalar": "0x0",
      "l1Fee": "0x0",
      "l1GasPrice": "0x4abd",
      "l1GasUsed": "0x640"
    },
    {
      "status": "0x1",
      "cumulativeGasUsed": "0x2d93f",
      "logs": [],
      "logsBloom": "0x00000000000000000000000000000000000000000000000000000000000000000000000000000000000000000000000000000000000000000000000000000000000000000000000000000000000000000000000000000000000000000000000000000000000000000000000000000000000000000000000000000000000000000000000000000000000000000000000000000000000000000000000000000000000000000000000000000000000000000000000000000000000000000000000000000000000000000000000000000000000000000000000000000000000000000000000000000000000000000000000000000000000000000000000000000000",
      "type": "0x0",
      "transactionHash": "0x86aac6f60db4f00bb443cb57a0cd6fe81e39d163bedfcc4435912df71db369b7",
      "transactionIndex": "0x3",
      "blockHash": "0x2835678e5221a00cec968e29bd235a0751e8dc8fc163e8e5f915acfb67467bd8",
      "blockNumber": "0x3071011",
      "gasUsed": "0x10dd0",
      "effectiveGasPrice": "0x5d22cfc40",
      "from": "0x020f19bae8af4339d707fbdaa09c454e5d13aee2",
      "to": "0x3c7c16b216d8c4fc786ad38d8615200d9b34168c",
      "contractAddress": null,
      "l1BaseFeeScalar": "0x0",
      "l1BlobBaseFee": "0x1",
      "l1BlobBaseFeeScalar": "0x0",
      "l1Fee": "0x0",
      "l1GasPrice": "0x4abd",
      "l1GasUsed": "0x640"
    }
  ],
  "libraries": [],
  "pending": [],
  "returns": {},
  "timestamp": 1751749834,
  "chain": 44787,
  "commit": "c5748e1"
}