{
  "transactions": [
    {
      "hash": "0xecba48da0e433b7f1560e793f54417adfab894c9b069dd41da071493e5b42fe5",
      "transactionType": "CALL",
      "contractName": null,
      "contractAddress": "0xaa50acdf785e28bebf760999a256b05300bc82a7",
      "function": "addAuthorizedSender(uint64,address)",
      "arguments": [
        "3552045678561919002",
        "0xb92B18Bd8c215a1A641cEe37Eb1d3D1159B78A01"
      ],
      "transaction": {
        "from": "0x020f19bae8af4339d707fbdaa09c454e5d13aee2",
        "to": "0xaa50acdf785e28bebf760999a256b05300bc82a7",
        "gas": "0x105d5",
        "value": "0x0",
        "input": "0x19506061000000000000000000000000000000000000000000000000314b66b9a0a5001a000000000000000000000000b92b18bd8c215a1a641cee37eb1d3d1159b78a01",
        "nonce": "0x2",
        "chainId": "0xaa36a7"
      },
      "additionalContracts": [],
      "isFixedGasLimit": false
    }
  ],
  "receipts": [
    {
      "status": "0x1",
      "cumulativeGasUsed": "0x999035",
      "logs": [
        {
          "address": "0xaa50acdf785e28bebf760999a256b05300bc82a7",
          "topics": [
            "0xc3236bdb25457d18045e263493b8be982bcbeeb3406f0619e3ff58c21b7493a7",
            "0x000000000000000000000000000000000000000000000000314b66b9a0a5001a",
            "0x000000000000000000000000b92b18bd8c215a1a641cee37eb1d3d1159b78a01"
          ],
          "data": "0x",
          "blockHash": "0x6ce770d1515c40b808a7633d1a0eea69c0adb51e5ac554eabd38b271627abe21",
          "blockNumber": "0x84c383",
          "blockTimestamp": "0x6869af48",
          "transactionHash": "0xecba48da0e433b7f1560e793f54417adfab894c9b069dd41da071493e5b42fe5",
          "transactionIndex": "0x7c",
          "logIndex": "0xab",
          "removed": false
        }
      ],
      "logsBloom": "0x00000000000000000800000000000000000000000000000000000000000000000000010000000000000000000000000000000000000000000000000000000080020000000000000000000000000000000001000000000000000000000000000000000000000000000000000000000000000000000000000000000000000000000000000000000000000000000000000000000000000000000000000000000000000000000000000000000000400000000000400200000000000000000000000000000000000000000000000000000000000000000000000000000000000000000080000000000000000000800000000000000000000080000000000020000000",
      "type": "0x2",
      "transactionHash": "0xecba48da0e433b7f1560e793f54417adfab894c9b069dd41da071493e5b42fe5",
      "transactionIndex": "0x7c",
      "blockHash": "0x6ce770d1515c40b808a7633d1a0eea69c0adb51e5ac554eabd38b271627abe21",
      "blockNumber": "0x84c383",
      "gasUsed": "0xbd90",
      "effectiveGasPrice": "0x10a394",
      "from": "0x020f19bae8af4339d707fbdaa09c454e5d13aee2",
      "to": "0xaa50acdf785e28bebf760999a256b05300bc82a7",
      "contractAddress": null
    }
  ],
  "libraries": [],
  "pending": [],
  "returns": {},
  "timestamp": 1751756617,
  "chain": 11155111,
  "commit": "c5748e1"
}