{
  "transactions": [
    {
      "hash": "0x5a51efece96f760c161418360b835054ccf409072e82f723e6092d3f88c3b6dd",
      "transactionType": "CALL",
      "contractName": null,
      "contractAddress": "0xaa50acdf785e28bebf760999a256b05300bc82a7",
      "function": "addAuthorizedSender(uint64,address)",
      "arguments": [
        "3552045678561919002",
        "0x02CB960aEaCb8325Da67ee3f34D82B5AC84EB8CB"
      ],
      "transaction": {
        "from": "0x020f19bae8af4339d707fbdaa09c454e5d13aee2",
        "to": "0xaa50acdf785e28bebf760999a256b05300bc82a7",
        "gas": "0x105d5",
        "value": "0x0",
        "input": "0x19506061000000000000000000000000000000000000000000000000314b66b9a0a5001a00000000000000000000000002cb960aeacb8325da67ee3f34d82b5ac84eb8cb",
        "nonce": "0x3",
        "chainId": "0xaa36a7"
      },
      "additionalContracts": [],
      "isFixedGasLimit": false
    }
  ],
  "receipts": [
    {
      "status": "0x1",
      "cumulativeGasUsed": "0xf2e2cb",
      "logs": [
        {
          "address": "0xaa50acdf785e28bebf760999a256b05300bc82a7",
          "topics": [
            "0xc3236bdb25457d18045e263493b8be982bcbeeb3406f0619e3ff58c21b7493a7",
            "0x000000000000000000000000000000000000000000000000314b66b9a0a5001a",
            "0x00000000000000000000000002cb960aeacb8325da67ee3f34d82b5ac84eb8cb"
          ],
          "data": "0x",
          "blockHash": "0x70a4be34e87293da7b61b56a73e34985bd1c13cfd8629ad7968863503821e3f8",
          "blockNumber": "0x84c485",
          "blockTimestamp": "0x6869bb6c",
          "transactionHash": "0x5a51efece96f760c161418360b835054ccf409072e82f723e6092d3f88c3b6dd",
          "transactionIndex": "0x7d",
          "logIndex": "0x81",
          "removed": false
        }
      ],
      "logsBloom": "0x00000000000000000000000000000000000000000000000000000010000000000000010000000000000000000000000000000000000000000000000000000080020000000000000000000000000000000001000000000000000000000000000000000000000000000000000000000000000000000000000000000000000000000000000000000000000000000000000002000000000000000000000000000000000000000000000000000000400000000000400200000000000000000000000000000000000000000000800000000000000000000000000000000000000000000000000000000000000000800000000000000000000080000000000000000000",
      "type": "0x2",
      "transactionHash": "0x5a51efece96f760c161418360b835054ccf409072e82f723e6092d3f88c3b6dd",
      "transactionIndex": "0x7d",
      "blockHash": "0x70a4be34e87293da7b61b56a73e34985bd1c13cfd8629ad7968863503821e3f8",
      "blockNumber": "0x84c485",
      "gasUsed": "0xbd90",
      "effectiveGasPrice": "0xf5332",
      "from": "0x020f19bae8af4339d707fbdaa09c454e5d13aee2",
      "to": "0xaa50acdf785e28bebf760999a256b05300bc82a7",
      "contractAddress": null
    }
  ],
  "libraries": [],
  "pending": [],
  "returns": {},
  "timestamp": 1751759724,
  "chain": 11155111,
  "commit": "c5748e1"
}