{
  "transactions": [
    {
      "hash": "0x57af90aec04fcd0c0cadc3d6c720aeb621c4c11e70a472b4b5fed582bcb16d0d",
      "transactionType": "CALL",
      "contractName": null,
      "contractAddress": "0xb92b18bd8c215a1a641cee37eb1d3d1159b78a01",
      "function": "setDestinationReceiver(uint64,address)",
      "arguments": [
        "16015286601757825753",
        "0xaa50ACdF785E28beBf760999a256b05300bC82A7"
      ],
      "transaction": {
        "from": "0x020f19bae8af4339d707fbdaa09c454e5d13aee2",
        "to": "0xb92b18bd8c215a1a641cee37eb1d3d1159b78a01",
        "gas": "0x9def",
        "value": "0x0",
        "input": "0x51617ffe000000000000000000000000000000000000000000000000de41ba4fc9d91ad9000000000000000000000000aa50acdf785e28bebf760999a256b05300bc82a7",
        "nonce": "0xf",
        "chainId": "0xaef3"
      },
      "additionalContracts": [],
      "isFixedGasLimit": false
    },
    {
      "hash": "0xfc4fc2e496c37883694fd1b103df3c7b5f826a1782e6703d5d73b9c892a7735f",
      "transactionType": "CALL",
      "contractName": null,
      "contractAddress": "0x99604d0e2efe7abfb58bde565b5330bb46ab3dca",
      "function": "deposit()",
      "arguments": [],
      "transaction": {
        "from": "0x020f19bae8af4339d707fbdaa09c454e5d13aee2",
        "to": "0x99604d0e2efe7abfb58bde565b5330bb46ab3dca",
        "gas": "0xf443",
        "value": "0x1bc16d674ec80000",
        "input": "0xd0e30db0",
        "nonce": "0x10",
        "chainId": "0xaef3"
      },
      "additionalContracts": [],
      "isFixedGasLimit": false
    },
    {
      "hash": "0x72ec47fd48be48fa50c9a54107d90c7f1bac8ca2afd2bbffdc0f733a8615fff1",
      "transactionType": "CALL",
      "contractName": null,
      "contractAddress": "0x99604d0e2efe7abfb58bde565b5330bb46ab3dca",
      "function": "transfer(address,uint256)",
      "arguments": [
        "0xb92B18Bd8c215a1A641cEe37Eb1d3D1159B78A01",
        "2000000000000000000"
      ],
      "transaction": {
        "from": "0x020f19bae8af4339d707fbdaa09c454e5d13aee2",
        "to": "0x99604d0e2efe7abfb58bde565b5330bb46ab3dca",
        "gas": "0x10177",
        "value": "0x0",
        "input": "0xa9059cbb000000000000000000000000b92b18bd8c215a1a641cee37eb1d3d1159b78a010000000000000000000000000000000000000000000000001bc16d674ec80000",
        "nonce": "0x11",
        "chainId": "0xaef3"
      },
      "additionalContracts": [],
      "isFixedGasLimit": false
    },
    {
      "hash": "0x61cbe7001d2b82128606fe86700a8432a84fcae5407db1222ded57db82b3917a",
      "transactionType": "CALL",
      "contractName": null,
      "contractAddress": "0xb92b18bd8c215a1a641cee37eb1d3d1159b78a01",
      "function": "manualSendVerification(uint256,string[],string,uint256[],address,uint64)",
      "arguments": [
        "123456",
        "[patalo]",
        "FR",
        "[0, 1, 2]",
        "0x0000000000000000000000000000000000000aBc",
        "16015286601757825753"
      ],
      "transaction": {
        "from": "0x020f19bae8af4339d707fbdaa09c454e5d13aee2",
        "to": "0xb92b18bd8c215a1a641cee37eb1d3d1159b78a01",
        "gas": "0x3bcd8",
        "value": "0x0",
        "input": "0x36903b54000000000000000000000000000000000000000000000000000000000001e24000000000000000000000000000000000000000000000000000000000000000c0000000000000000000000000000000000000000000000000000000000000014000000000000000000000000000000000000000000000000000000000000001800000000000000000000000000000000000000000000000000000000000000abc000000000000000000000000000000000000000000000000de41ba4fc9d91ad9000000000000000000000000000000000000000000000000000000000000000100000000000000000000000000000000000000000000000000000000000000200000000000000000000000000000000000000000000000000000000000000006706174616c6f0000000000000000000000000000000000000000000000000000000000000000000000000000000000000000000000000000000000000000000246520000000000000000000000000000000000000000000000000000000000000000000000000000000000000000000000000000000000000000000000000003000000000000000000000000000000000000000000000000000000000000000000000000000000000000000000000000000000000000000000000000000000010000000000000000000000000000000000000000000000000000000000000002",
        "nonce": "0x12",
        "chainId": "0xaef3"
      },
      "additionalContracts": [],
      "isFixedGasLimit": false
    }
  ],
  "receipts": [
    {
      "status": "0x1",
      "cumulativeGasUsed": "0x12644",
      "logs": [],
      "logsBloom": "0x00000000000000000000000000000000000000000000000000000000000000000000000000000000000000000000000000000000000000000000000000000000000000000000000000000000000000000000000000000000000000000000000000000000000000000000000000000000000000000000000000000000000000000000000000000000000000000000000000000000000000000000000000000000000000000000000000000000000000000000000000000000000000000000000000000000000000000000000000000000000000000000000000000000000000000000000000000000000000000000000000000000000000000000000000000000",
      "type": "0x0",
      "transactionHash": "0x57af90aec04fcd0c0cadc3d6c720aeb621c4c11e70a472b4b5fed582bcb16d0d",
      "transactionIndex": "0x1",
      "blockHash": "0x5706f9d5195c83de3eda6aa7efdca760b506bdf82eca51620c4059fef2c44703",
      "blockNumber": "0x3071fba",
      "gasUsed": "0x7258",
      "effectiveGasPrice": "0x5d22cfc40",
      "from": "0x020f19bae8af4339d707fbdaa09c454e5d13aee2",
      "to": "0xb92b18bd8c215a1a641cee37eb1d3d1159b78a01",
      "contractAddress": null,
      "l1BaseFeeScalar": "0x0",
      "l1BlobBaseFee": "0x1",
      "l1BlobBaseFeeScalar": "0x0",
      "l1Fee": "0x0",
      "l1GasPrice": "0x4c04",
      "l1GasUsed": "0x640"
    },
    {
      "status": "0x1",
      "cumulativeGasUsed": "0x1d71c",
      "logs": [
        {
          "address": "0x99604d0e2efe7abfb58bde565b5330bb46ab3dca",
          "topics": [
            "0xe1fffcc4923d04b559f4d29a8bfc6cda04eb5b0d3c460751c2402c5c5cc9109c",
            "0x000000000000000000000000020f19bae8af4339d707fbdaa09c454e5d13aee2"
          ],
          "data": "0x0000000000000000000000000000000000000000000000001bc16d674ec80000",
          "blockHash": "0x5706f9d5195c83de3eda6aa7efdca760b506bdf82eca51620c4059fef2c44703",
          "blockNumber": "0x3071fba",
          "transactionHash": "0xfc4fc2e496c37883694fd1b103df3c7b5f826a1782e6703d5d73b9c892a7735f",
          "transactionIndex": "0x2",
          "logIndex": "0x0",
          "removed": false
        }
      ],
      "logsBloom": "0x00000000000000000000000000000000400000000000000000000000000000000000000000000010000000000000000000000000000000000000000000000000000000000000000000000000000000010000000000000000000000008000000000004000000000000000000000000000000000000000000000000000000000000000000000000000000000000000000000000001000000000000000000000000000000000000000000000000000000000000000000000000000000000800000000000000000000000000000000000000000000000000000002000000000000000000000000000000000000000000000000000000000000400000000000000000",
      "type": "0x0",
      "transactionHash": "0xfc4fc2e496c37883694fd1b103df3c7b5f826a1782e6703d5d73b9c892a7735f",
      "transactionIndex": "0x2",
      "blockHash": "0x5706f9d5195c83de3eda6aa7efdca760b506bdf82eca51620c4059fef2c44703",
      "blockNumber": "0x3071fba",
      "gasUsed": "0xb0d8",
      "effectiveGasPrice": "0x5d22cfc40",
      "from": "0x020f19bae8af4339d707fbdaa09c454e5d13aee2",
      "to": "0x99604d0e2efe7abfb58bde565b5330bb46ab3dca",
      "contractAddress": null,
      "l1BaseFeeScalar": "0x0",
      "l1BlobBaseFee": "0x1",
      "l1BlobBaseFeeScalar": "0x0",
      "l1Fee": "0x0",
      "l1GasPrice": "0x4c04",
      "l1GasUsed": "0x640"
    },
    {
      "status": "0x1",
      "cumulativeGasUsed": "0x29183",
      "logs": [
        {
          "address": "0x99604d0e2efe7abfb58bde565b5330bb46ab3dca",
          "topics": [
            "0xddf252ad1be2c89b69c2b068fc378daa952ba7f163c4a11628f55a4df523b3ef",
            "0x000000000000000000000000020f19bae8af4339d707fbdaa09c454e5d13aee2",
            "0x000000000000000000000000b92b18bd8c215a1a641cee37eb1d3d1159b78a01"
          ],
          "data": "0x0000000000000000000000000000000000000000000000001bc16d674ec80000",
          "blockHash": "0x5706f9d5195c83de3eda6aa7efdca760b506bdf82eca51620c4059fef2c44703",
          "blockNumber": "0x3071fba",
          "transactionHash": "0x72ec47fd48be48fa50c9a54107d90c7f1bac8ca2afd2bbffdc0f733a8615fff1",
          "transactionIndex": "0x3",
          "logIndex": "0x1",
          "removed": false
        }
      ],
      "logsBloom": "0x00000000000000000800000000000000400000000000000000000000000000000000000000000010000000000000000000000000000000000000000000000000000000000000000000000008000000010000000000000000000000000000000000004000000000000000000000000000000000000000000000000010000000000000000000000000000000000000000000000000000000000000000000000000000000000000000000000000000000000000000000000000000000000800000000000002000000000000000000000000000000000000000002000000000000000080000000000000000000000000000000000000000000000000000020000000",
      "type": "0x0",
      "transactionHash": "0x72ec47fd48be48fa50c9a54107d90c7f1bac8ca2afd2bbffdc0f733a8615fff1",
      "transactionIndex": "0x3",
      "blockHash": "0x5706f9d5195c83de3eda6aa7efdca760b506bdf82eca51620c4059fef2c44703",
      "blockNumber": "0x3071fba",
      "gasUsed": "0xba67",
      "effectiveGasPrice": "0x5d22cfc40",
      "from": "0x020f19bae8af4339d707fbdaa09c454e5d13aee2",
      "to": "0x99604d0e2efe7abfb58bde565b5330bb46ab3dca",
      "contractAddress": null,
      "l1BaseFeeScalar": "0x0",
      "l1BlobBaseFee": "0x1",
      "l1BlobBaseFeeScalar": "0x0",
      "l1Fee": "0x0",
      "l1GasPrice": "0x4c04",
      "l1GasUsed": "0x640"
    },
    {
      "status": "0x1",
      "cumulativeGasUsed": "0x51fc4",
      "logs": [
        {
          "address": "0x99604d0e2efe7abfb58bde565b5330bb46ab3dca",
          "topics": [
            "0x8c5be1e5ebec7d5bd14f71427d1e84f3dd0314c0f7b2291e5b200ac8c7c3b925",
            "0x000000000000000000000000b92b18bd8c215a1a641cee37eb1d3d1159b78a01",
            "0x000000000000000000000000b00e95b773528e2ea724db06b75113f239d15dca"
          ],
          "data": "0x00000000000000000000000000000000000000000000000019ef4ed9b053c7b0",
          "blockHash": "0x5706f9d5195c83de3eda6aa7efdca760b506bdf82eca51620c4059fef2c44703",
          "blockNumber": "0x3071fba",
          "transactionHash": "0x61cbe7001d2b82128606fe86700a8432a84fcae5407db1222ded57db82b3917a",
          "transactionIndex": "0x4",
          "logIndex": "0x2",
          "removed": false
        },
        {
          "address": "0x99604d0e2efe7abfb58bde565b5330bb46ab3dca",
          "topics": [
            "0xddf252ad1be2c89b69c2b068fc378daa952ba7f163c4a11628f55a4df523b3ef",
            "0x000000000000000000000000b92b18bd8c215a1a641cee37eb1d3d1159b78a01",
            "0x00000000000000000000000068a4f57a499563192c606a898baf503a43fcdb4d"
          ],
          "data": "0x00000000000000000000000000000000000000000000000019ef4ed9b053c7b0",
          "blockHash": "0x5706f9d5195c83de3eda6aa7efdca760b506bdf82eca51620c4059fef2c44703",
          "blockNumber": "0x3071fba",
          "transactionHash": "0x61cbe7001d2b82128606fe86700a8432a84fcae5407db1222ded57db82b3917a",
          "transactionIndex": "0x4",
          "logIndex": "0x3",
          "removed": false
        },
        {
          "address": "0x68a4f57a499563192c606a898baf503a43fcdb4d",
          "topics": [
            "0xd0c3c799bf9e2639de44391e7f524d229b2b55f5b1ea94b2bf7da42f7243dddd"
          ],
          "data": "0x0000000000000000000000000000000000000000000000000000000000000020000000000000000000000000000000000000000000000000314b66b9a0a5001a000000000000000000000000b92b18bd8c215a1a641cee37eb1d3d1159b78a01000000000000000000000000aa50acdf785e28bebf760999a256b05300bc82a7000000000000000000000000000000000000000000000000000000000000013500000000000000000000000000000000000000000000000000000000000493e00000000000000000000000000000000000000000000000000000000000000000000000000000000000000000000000000000000000000000000000000000000000000000000000000000000099604d0e2efe7abfb58bde565b5330bb46ab3dca00000000000000000000000000000000000000000000000019ef4ed9b053c7b000000000000000000000000000000000000000000000000000000000000001a000000000000000000000000000000000000000000000000000000000000003e00000000000000000000000000000000000000000000000000000000000000400286f866b72417871b6f6482173cbbbdb0b317f0db218dd0f492388c0dbbc3b1a00000000000000000000000000000000000000000000000000000000000002200000000000000000000000000000000000000000000000000000000000000020000000000000000000000000000000000000000000000000000000000001e24000000000000000000000000000000000000000000000000000000000000000c0000000000000000000000000000000000000000000000000000000000000014000000000000000000000000000000000000000000000000000000000000001800000000000000000000000000000000000000000000000000000000000000abc000000000000000000000000000000000000000000000000000000006869a472000000000000000000000000000000000000000000000000000000000000000100000000000000000000000000000000000000000000000000000000000000200000000000000000000000000000000000000000000000000000000000000006706174616c6f000000000000000000000000000000000000000000000000000000000000000000000000000000000000000000000000000000000000000000024652000000000000000000000000000000000000000000000000000000000000000000000000000000000000000000000000000000000000000000000000000300000000000000000000000000000000000000000000000000000000000000000000000000000000000000000000000000000000000000000000000000000001000000000000000000000000000000000000000000000000000000000000000200000000000000000000000000000000000000000000000000000000000000000000000000000000000000000000000000000000000000000000000000000000",
          "blockHash": "0x5706f9d5195c83de3eda6aa7efdca760b506bdf82eca51620c4059fef2c44703",
          "blockNumber": "0x3071fba",
          "transactionHash": "0x61cbe7001d2b82128606fe86700a8432a84fcae5407db1222ded57db82b3917a",
          "transactionIndex": "0x4",
          "logIndex": "0x4",
          "removed": false
        },
        {
          "address": "0xb92b18bd8c215a1a641cee37eb1d3d1159b78a01",
          "topics": [
            "0xb11012e0ed9c0fecea0c547ebbcb3656b3946dc722d3c9e7ebdec6ecaf91b21f",
            "0x286f866b72417871b6f6482173cbbbdb0b317f0db218dd0f492388c0dbbc3b1a",
            "0x000000000000000000000000000000000000000000000000de41ba4fc9d91ad9"
          ],
          "data": "0x000000000000000000000000aa50acdf785e28bebf760999a256b05300bc82a7000000000000000000000000000000000000000000000000000000000001e24000000000000000000000000000000000000000000000000019ef4ed9b053c7b0",
          "blockHash": "0x5706f9d5195c83de3eda6aa7efdca760b506bdf82eca51620c4059fef2c44703",
          "blockNumber": "0x3071fba",
          "transactionHash": "0x61cbe7001d2b82128606fe86700a8432a84fcae5407db1222ded57db82b3917a",
          "transactionIndex": "0x4",
          "logIndex": "0x5",
          "removed": false
        }
      ],
      "logsBloom": "0x00000000000000004800000000000000000000000000000000000000000000000008000000004010000000000000000080000000000000000000000000204000000000000044000000000008000008010000000000000000000000000000000002000000000000000000000000010000100001000080000000000010002000000000000000000000000000000000000000000020000200000000000000000000020000000000000400000000020800000000000000000000000100000800000000000002000000000020000000000000000000000000000000000000100000000090000000000000000000000000000004010000000000000000000020000000",
      "type": "0x0",
      "transactionHash": "0x61cbe7001d2b82128606fe86700a8432a84fcae5407db1222ded57db82b3917a",
      "transactionIndex": "0x4",
      "blockHash": "0x5706f9d5195c83de3eda6aa7efdca760b506bdf82eca51620c4059fef2c44703",
      "blockNumber": "0x3071fba",
      "gasUsed": "0x28e41",
      "effectiveGasPrice": "0x5d22cfc40",
      "from": "0x020f19bae8af4339d707fbdaa09c454e5d13aee2",
      "to": "0xb92b18bd8c215a1a641cee37eb1d3d1159b78a01",
      "contractAddress": null,
      "l1BaseFeeScalar": "0x0",
      "l1BlobBaseFee": "0x1",
      "l1BlobBaseFeeScalar": "0x0",
      "l1Fee": "0x0",
      "l1GasPrice": "0x4c04",
      "l1GasUsed": "0x927"
    }
  ],
  "libraries": [],
  "pending": [],
  "returns": {},
  "timestamp": 1751753843,
  "chain": 44787,
  "commit": "c5748e1"
}