{
  "transactions": [
    {
      "hash": "0x874a28359b89cd63b5c0c145b146b70f2eb91b945f81869264c2e12e672684bf",
      "transactionType": "CALL",
      "contractName": null,
      "contractAddress": "0xb92b18bd8c215a1a641cee37eb1d3d1159b78a01",
      "function": "setDestinationReceiver(uint64,address)",
      "arguments": [
        "16015286601757825753",
        "0xaa50ACdF785E28beBf760999a256b05300bC82A7"
      ],
      "transaction": {
        "from": "0x020f19bae8af4339d707fbdaa09c454e5d13aee2",
        "to": "0xb92b18bd8c215a1a641cee37eb1d3d1159b78a01",
        "gas": "0x9def",
        "value": "0x0",
        "input": "0x51617ffe000000000000000000000000000000000000000000000000de41ba4fc9d91ad9000000000000000000000000aa50acdf785e28bebf760999a256b05300bc82a7",
        "nonce": "0x13",
        "chainId": "0xaef3"
      },
      "additionalContracts": [],
      "isFixedGasLimit": false
    },
    {
      "hash": "0x0d8dd71925575512d58d923b3a945dd71959f28c7102bc7bf410ed4dc35da658",
      "transactionType": "CALL",
      "contractName": null,
      "contractAddress": "0x99604d0e2efe7abfb58bde565b5330bb46ab3dca",
      "function": "deposit()",
      "arguments": [],
      "transaction": {
        "from": "0x020f19bae8af4339d707fbdaa09c454e5d13aee2",
        "to": "0x99604d0e2efe7abfb58bde565b5330bb46ab3dca",
        "gas": "0xf443",
        "value": "0x1bc16d674ec80000",
        "input": "0xd0e30db0",
        "nonce": "0x14",
        "chainId": "0xaef3"
      },
      "additionalContracts": [],
      "isFixedGasLimit": false
    },
    {
      "hash": "0xb6eec55006a6725bb6928b66eb6bb06f4a2e3ad8298d6d6017c3094274042a6b",
      "transactionType": "CALL",
      "contractName": null,
      "contractAddress": "0x99604d0e2efe7abfb58bde565b5330bb46ab3dca",
      "function": "transfer(address,uint256)",
      "arguments": [
        "0xb92B18Bd8c215a1A641cEe37Eb1d3D1159B78A01",
        "2000000000000000000"
      ],
      "transaction": {
        "from": "0x020f19bae8af4339d707fbdaa09c454e5d13aee2",
        "to": "0x99604d0e2efe7abfb58bde565b5330bb46ab3dca",
        "gas": "0xaeeb",
        "value": "0x0",
        "input": "0xa9059cbb000000000000000000000000b92b18bd8c215a1a641cee37eb1d3d1159b78a010000000000000000000000000000000000000000000000001bc16d674ec80000",
        "nonce": "0x15",
        "chainId": "0xaef3"
      },
      "additionalContracts": [],
      "isFixedGasLimit": false
    },
    {
      "hash": "0xe76bb6b5d27501426fced536019a07977b69cfebae9318c950efaf63b2806c12",
      "transactionType": "CALL",
      "contractName": null,
      "contractAddress": "0xb92b18bd8c215a1a641cee37eb1d3d1159b78a01",
      "function": "manualSendVerification(uint256,string[],string,uint256[],address,uint64)",
      "arguments": [
        "123456",
        "[patalo]",
        "FR",
        "[0, 1, 2]",
        "0x0000000000000000000000000000000000000aBc",
        "16015286601757825753"
      ],
      "transaction": {
        "from": "0x020f19bae8af4339d707fbdaa09c454e5d13aee2",
        "to": "0xb92b18bd8c215a1a641cee37eb1d3d1159b78a01",
        "gas": "0x3bcd8",
        "value": "0x0",
        "input": "0x36903b54000000000000000000000000000000000000000000000000000000000001e24000000000000000000000000000000000000000000000000000000000000000c0000000000000000000000000000000000000000000000000000000000000014000000000000000000000000000000000000000000000000000000000000001800000000000000000000000000000000000000000000000000000000000000abc000000000000000000000000000000000000000000000000de41ba4fc9d91ad9000000000000000000000000000000000000000000000000000000000000000100000000000000000000000000000000000000000000000000000000000000200000000000000000000000000000000000000000000000000000000000000006706174616c6f0000000000000000000000000000000000000000000000000000000000000000000000000000000000000000000000000000000000000000000246520000000000000000000000000000000000000000000000000000000000000000000000000000000000000000000000000000000000000000000000000003000000000000000000000000000000000000000000000000000000000000000000000000000000000000000000000000000000000000000000000000000000010000000000000000000000000000000000000000000000000000000000000002",
        "nonce": "0x16",
        "chainId": "0xaef3"
      },
      "additionalContracts": [],
      "isFixedGasLimit": false
    }
  ],
  "receipts": [
    {
      "status": "0x1",
      "cumulativeGasUsed": "0x12638",
      "logs": [],
      "logsBloom": "0x00000000000000000000000000000000000000000000000000000000000000000000000000000000000000000000000000000000000000000000000000000000000000000000000000000000000000000000000000000000000000000000000000000000000000000000000000000000000000000000000000000000000000000000000000000000000000000000000000000000000000000000000000000000000000000000000000000000000000000000000000000000000000000000000000000000000000000000000000000000000000000000000000000000000000000000000000000000000000000000000000000000000000000000000000000000",
      "type": "0x0",
      "transactionHash": "0x874a28359b89cd63b5c0c145b146b70f2eb91b945f81869264c2e12e672684bf",
      "transactionIndex": "0x1",
      "blockHash": "0x138925823394141a47d349519335552ce070f9a6b815d407eb25ffae571fdcf0",
      "blockNumber": "0x3072aa3",
      "gasUsed": "0x7258",
      "effectiveGasPrice": "0x5d22cfc40",
      "from": "0x020f19bae8af4339d707fbdaa09c454e5d13aee2",
      "to": "0xb92b18bd8c215a1a641cee37eb1d3d1159b78a01",
      "contractAddress": null,
      "l1BaseFeeScalar": "0x0",
      "l1BlobBaseFee": "0x1",
      "l1BlobBaseFeeScalar": "0x0",
      "l1Fee": "0x0",
      "l1GasPrice": "0x54af",
      "l1GasUsed": "0x640"
    },
    {
      "status": "0x1",
      "cumulativeGasUsed": "0x1d710",
      "logs": [
        {
          "address": "0x99604d0e2efe7abfb58bde565b5330bb46ab3dca",
          "topics": [
            "0xe1fffcc4923d04b559f4d29a8bfc6cda04eb5b0d3c460751c2402c5c5cc9109c",
            "0x000000000000000000000000020f19bae8af4339d707fbdaa09c454e5d13aee2"
          ],
          "data": "0x0000000000000000000000000000000000000000000000001bc16d674ec80000",
          "blockHash": "0x138925823394141a47d349519335552ce070f9a6b815d407eb25ffae571fdcf0",
          "blockNumber": "0x3072aa3",
          "transactionHash": "0x0d8dd71925575512d58d923b3a945dd71959f28c7102bc7bf410ed4dc35da658",
          "transactionIndex": "0x2",
          "logIndex": "0x0",
          "removed": false
        }
      ],
      "logsBloom": "0x00000000000000000000000000000000400000000000000000000000000000000000000000000010000000000000000000000000000000000000000000000000000000000000000000000000000000010000000000000000000000008000000000004000000000000000000000000000000000000000000000000000000000000000000000000000000000000000000000000001000000000000000000000000000000000000000000000000000000000000000000000000000000000800000000000000000000000000000000000000000000000000000002000000000000000000000000000000000000000000000000000000000000400000000000000000",
      "type": "0x0",
      "transactionHash": "0x0d8dd71925575512d58d923b3a945dd71959f28c7102bc7bf410ed4dc35da658",
      "transactionIndex": "0x2",
      "blockHash": "0x138925823394141a47d349519335552ce070f9a6b815d407eb25ffae571fdcf0",
      "blockNumber": "0x3072aa3",
      "gasUsed": "0xb0d8",
      "effectiveGasPrice": "0x5d22cfc40",
      "from": "0x020f19bae8af4339d707fbdaa09c454e5d13aee2",
      "to": "0x99604d0e2efe7abfb58bde565b5330bb46ab3dca",
      "contractAddress": null,
      "l1BaseFeeScalar": "0x0",
      "l1BlobBaseFee": "0x1",
      "l1BlobBaseFeeScalar": "0x0",
      "l1Fee": "0x0",
      "l1GasPrice": "0x54af",
      "l1GasUsed": "0x640"
    },
    {
      "status": "0x1",
      "cumulativeGasUsed": "0x24eab",
      "logs": [
        {
          "address": "0x99604d0e2efe7abfb58bde565b5330bb46ab3dca",
          "topics": [
            "0xddf252ad1be2c89b69c2b068fc378daa952ba7f163c4a11628f55a4df523b3ef",
            "0x000000000000000000000000020f19bae8af4339d707fbdaa09c454e5d13aee2",
            "0x000000000000000000000000b92b18bd8c215a1a641cee37eb1d3d1159b78a01"
          ],
          "data": "0x0000000000000000000000000000000000000000000000001bc16d674ec80000",
          "blockHash": "0x138925823394141a47d349519335552ce070f9a6b815d407eb25ffae571fdcf0",
          "blockNumber": "0x3072aa3",
          "transactionHash": "0xb6eec55006a6725bb6928b66eb6bb06f4a2e3ad8298d6d6017c3094274042a6b",
          "transactionIndex": "0x3",
          "logIndex": "0x1",
          "removed": false
        }
      ],
      "logsBloom": "0x00000000000000000800000000000000400000000000000000000000000000000000000000000010000000000000000000000000000000000000000000000000000000000000000000000008000000010000000000000000000000000000000000004000000000000000000000000000000000000000000000000010000000000000000000000000000000000000000000000000000000000000000000000000000000000000000000000000000000000000000000000000000000000800000000000002000000000000000000000000000000000000000002000000000000000080000000000000000000000000000000000000000000000000000020000000",
      "type": "0x0",
      "transactionHash": "0xb6eec55006a6725bb6928b66eb6bb06f4a2e3ad8298d6d6017c3094274042a6b",
      "transactionIndex": "0x3",
      "blockHash": "0x138925823394141a47d349519335552ce070f9a6b815d407eb25ffae571fdcf0",
      "blockNumber": "0x3072aa3",
      "gasUsed": "0x779b",
      "effectiveGasPrice": "0x5d22cfc40",
      "from": "0x020f19bae8af4339d707fbdaa09c454e5d13aee2",
      "to": "0x99604d0e2efe7abfb58bde565b5330bb46ab3dca",
      "contractAddress": null,
      "l1BaseFeeScalar": "0x0",
      "l1BlobBaseFee": "0x1",
      "l1BlobBaseFeeScalar": "0x0",
      "l1Fee": "0x0",
      "l1GasPrice": "0x54af",
      "l1GasUsed": "0x640"
    },
    {
      "status": "0x1",
      "cumulativeGasUsed": "0x4dcec",
      "logs": [
        {
          "address": "0x99604d0e2efe7abfb58bde565b5330bb46ab3dca",
          "topics": [
            "0x8c5be1e5ebec7d5bd14f71427d1e84f3dd0314c0f7b2291e5b200ac8c7c3b925",
            "0x000000000000000000000000b92b18bd8c215a1a641cee37eb1d3d1159b78a01",
            "0x000000000000000000000000b00e95b773528e2ea724db06b75113f239d15dca"
          ],
          "data": "0x00000000000000000000000000000000000000000000000019ec23ab97e0c648",
          "blockHash": "0x138925823394141a47d349519335552ce070f9a6b815d407eb25ffae571fdcf0",
          "blockNumber": "0x3072aa3",
          "transactionHash": "0xe76bb6b5d27501426fced536019a07977b69cfebae9318c950efaf63b2806c12",
          "transactionIndex": "0x4",
          "logIndex": "0x2",
          "removed": false
        },
        {
          "address": "0x99604d0e2efe7abfb58bde565b5330bb46ab3dca",
          "topics": [
            "0xddf252ad1be2c89b69c2b068fc378daa952ba7f163c4a11628f55a4df523b3ef",
            "0x000000000000000000000000b92b18bd8c215a1a641cee37eb1d3d1159b78a01",
            "0x00000000000000000000000068a4f57a499563192c606a898baf503a43fcdb4d"
          ],
          "data": "0x00000000000000000000000000000000000000000000000019ec23ab97e0c648",
          "blockHash": "0x138925823394141a47d349519335552ce070f9a6b815d407eb25ffae571fdcf0",
          "blockNumber": "0x3072aa3",
          "transactionHash": "0xe76bb6b5d27501426fced536019a07977b69cfebae9318c950efaf63b2806c12",
          "transactionIndex": "0x4",
          "logIndex": "0x3",
          "removed": false
        },
        {
          "address": "0x68a4f57a499563192c606a898baf503a43fcdb4d",
          "topics": [
            "0xd0c3c799bf9e2639de44391e7f524d229b2b55f5b1ea94b2bf7da42f7243dddd"
          ],
          "data": "0x0000000000000000000000000000000000000000000000000000000000000020000000000000000000000000000000000000000000000000314b66b9a0a5001a000000000000000000000000b92b18bd8c215a1a641cee37eb1d3d1159b78a01000000000000000000000000aa50acdf785e28bebf760999a256b05300bc82a7000000000000000000000000000000000000000000000000000000000000013600000000000000000000000000000000000000000000000000000000000493e00000000000000000000000000000000000000000000000000000000000000000000000000000000000000000000000000000000000000000000000000000000000000000000000000000000099604d0e2efe7abfb58bde565b5330bb46ab3dca00000000000000000000000000000000000000000000000019ec23ab97e0c64800000000000000000000000000000000000000000000000000000000000001a000000000000000000000000000000000000000000000000000000000000003e00000000000000000000000000000000000000000000000000000000000000400d80d7defadc04bf1aba61a7ff93f8291a70854c2ec882afb3e0a83f26d9a6c7d00000000000000000000000000000000000000000000000000000000000002200000000000000000000000000000000000000000000000000000000000000020000000000000000000000000000000000000000000000000000000000001e24000000000000000000000000000000000000000000000000000000000000000c0000000000000000000000000000000000000000000000000000000000000014000000000000000000000000000000000000000000000000000000000000001800000000000000000000000000000000000000000000000000000000000000abc000000000000000000000000000000000000000000000000000000006869af5b000000000000000000000000000000000000000000000000000000000000000100000000000000000000000000000000000000000000000000000000000000200000000000000000000000000000000000000000000000000000000000000006706174616c6f000000000000000000000000000000000000000000000000000000000000000000000000000000000000000000000000000000000000000000024652000000000000000000000000000000000000000000000000000000000000000000000000000000000000000000000000000000000000000000000000000300000000000000000000000000000000000000000000000000000000000000000000000000000000000000000000000000000000000000000000000000000001000000000000000000000000000000000000000000000000000000000000000200000000000000000000000000000000000000000000000000000000000000000000000000000000000000000000000000000000000000000000000000000000",
          "blockHash": "0x138925823394141a47d349519335552ce070f9a6b815d407eb25ffae571fdcf0",
          "blockNumber": "0x3072aa3",
          "transactionHash": "0xe76bb6b5d27501426fced536019a07977b69cfebae9318c950efaf63b2806c12",
          "transactionIndex": "0x4",
          "logIndex": "0x4",
          "removed": false
        },
        {
          "address": "0xb92b18bd8c215a1a641cee37eb1d3d1159b78a01",
          "topics": [
            "0xb11012e0ed9c0fecea0c547ebbcb3656b3946dc722d3c9e7ebdec6ecaf91b21f",
            "0xd80d7defadc04bf1aba61a7ff93f8291a70854c2ec882afb3e0a83f26d9a6c7d",
            "0x000000000000000000000000000000000000000000000000de41ba4fc9d91ad9"
          ],
          "data": "0x000000000000000000000000aa50acdf785e28bebf760999a256b05300bc82a7000000000000000000000000000000000000000000000000000000000001e24000000000000000000000000000000000000000000000000019ec23ab97e0c648",
          "blockHash": "0x138925823394141a47d349519335552ce070f9a6b815d407eb25ffae571fdcf0",
          "blockNumber": "0x3072aa3",
          "transactionHash": "0xe76bb6b5d27501426fced536019a07977b69cfebae9318c950efaf63b2806c12",
          "transactionIndex": "0x4",
          "logIndex": "0x5",
          "removed": false
        }
      ],
      "logsBloom": "0x00000000000000004800000000000000000000000000000000000000000000000008000010004010000000000000000000000000000000000000000000204000000000000044000000000008000008010000000000000000000000000000000002000000000000000000000200010000100000000080000000000010002000000008000000000000000000000000000000000020000200000000000000000000020000000000000400000000020800000000000000000000000100000800000000000002000000000020000000000000000000000000000000000000100000000090000000000000000000000000000004000000000000000000000020000000",
      "type": "0x0",
      "transactionHash": "0xe76bb6b5d27501426fced536019a07977b69cfebae9318c950efaf63b2806c12",
      "transactionIndex": "0x4",
      "blockHash": "0x138925823394141a47d349519335552ce070f9a6b815d407eb25ffae571fdcf0",
      "blockNumber": "0x3072aa3",
      "gasUsed": "0x28e41",
      "effectiveGasPrice": "0x5d22cfc40",
      "from": "0x020f19bae8af4339d707fbdaa09c454e5d13aee2",
      "to": "0xb92b18bd8c215a1a641cee37eb1d3d1159b78a01",
      "contractAddress": null,
      "l1BaseFeeScalar": "0x0",
      "l1BlobBaseFee": "0x1",
      "l1BlobBaseFeeScalar": "0x0",
      "l1Fee": "0x0",
      "l1GasPrice": "0x54af",
      "l1GasUsed": "0x927"
    }
  ],
  "libraries": [],
  "pending": [],
  "returns": {},
  "timestamp": 1751759431,
  "chain": 44787,
  "commit": "c5748e1"
}