{
  "transactions": [
    {
      "hash": "0x8d1f3f8ebfb2d79fc300dae359b015af1b49a93320896253d20c5a99390d07a6",
      "transactionType": "CALL",
      "contractName": null,
      "contractAddress": "0x59a85c1ef49fa7ddcbdf11d90b250a1daa3e63d1",
      "function": "setDestinationReceiver(uint64,address)",
      "arguments": [
        "16015286601757825753",
        "0x98f65D5D44d261031E4B5b65e53efAce2b96a4DC"
      ],
      "transaction": {
        "from": "0x020f19bae8af4339d707fbdaa09c454e5d13aee2",
        "to": "0x59a85c1ef49fa7ddcbdf11d90b250a1daa3e63d1",
        "gas": "0x9de1",
        "value": "0x0",
        "input": "0x51617ffe000000000000000000000000000000000000000000000000de41ba4fc9d91ad900000000000000000000000098f65d5d44d261031e4b5b65e53eface2b96a4dc",
        "nonce": "0x22",
        "chainId": "0xaef3"
      },
      "additionalContracts": [],
      "isFixedGasLimit": false
    },
    {
      "hash": "0xcb0749f7a881ebf940642441454113972cc40131dfeb54e1a36f65f6070b4276",
      "transactionType": "CALL",
      "contractName": null,
      "contractAddress": "0x32e08557b14fad8908025619797221281d439071",
      "function": "transfer(address,uint256)",
      "arguments": [
        "0x59A85C1Ef49FA7DDCbDf11d90B250A1daA3e63d1",
        "5000000000000000000"
      ],
      "transaction": {
        "from": "0x020f19bae8af4339d707fbdaa09c454e5d13aee2",
        "to": "0x32e08557b14fad8908025619797221281d439071",
        "gas": "0x1271d",
        "value": "0x0",
        "input": "0xa9059cbb00000000000000000000000059a85c1ef49fa7ddcbdf11d90b250a1daa3e63d10000000000000000000000000000000000000000000000004563918244f40000",
        "nonce": "0x23",
        "chainId": "0xaef3"
      },
      "additionalContracts": [],
      "isFixedGasLimit": false
    },
    {
      "hash": "0xba0b3189910f4b75f0a96200c0b9e42cbf30b5d923d9922f9a36d3ff52b86418",
      "transactionType": "CALL",
      "contractName": null,
      "contractAddress": "0x59a85c1ef49fa7ddcbdf11d90b250a1daa3e63d1",
      "function": "manualSendVerification(uint256,string[],string,bytes,address,uint64)",
      "arguments": [
        "123456",
        "[patalo]",
        "FR",
        "0x000000000000000000000000000000000000000000000000000000000000002000000000000000000000000000000000000000000000000000000000000000076164647265737300000000000000000000000000000000000000000000000000",
        "0x0000000000000000000000000000000000000aBc",
        "16015286601757825753"
      ],
      "transaction": {
        "from": "0x020f19bae8af4339d707fbdaa09c454e5d13aee2",
        "to": "0x59a85c1ef49fa7ddcbdf11d90b250a1daa3e63d1",
        "gas": "0x39a9e",
        "value": "0x0",
        "input": "0x708d42b6000000000000000000000000000000000000000000000000000000000001e24000000000000000000000000000000000000000000000000000000000000000c0000000000000000000000000000000000000000000000000000000000000014000000000000000000000000000000000000000000000000000000000000001800000000000000000000000000000000000000000000000000000000000000abc000000000000000000000000000000000000000000000000de41ba4fc9d91ad9000000000000000000000000000000000000000000000000000000000000000100000000000000000000000000000000000000000000000000000000000000200000000000000000000000000000000000000000000000000000000000000006706174616c6f0000000000000000000000000000000000000000000000000000000000000000000000000000000000000000000000000000000000000000000246520000000000000000000000000000000000000000000000000000000000000000000000000000000000000000000000000000000000000000000000000060000000000000000000000000000000000000000000000000000000000000002000000000000000000000000000000000000000000000000000000000000000076164647265737300000000000000000000000000000000000000000000000000",
        "nonce": "0x24",
        "chainId": "0xaef3"
      },
      "additionalContracts": [],
      "isFixedGasLimit": false
    }
  ],
  "receipts": [
    {
      "status": "0x1",
      "cumulativeGasUsed": "0x1263a",
      "logs": [],
      "logsBloom": "0x00000000000000000000000000000000000000000000000000000000000000000000000000000000000000000000000000000000000000000000000000000000000000000000000000000000000000000000000000000000000000000000000000000000000000000000000000000000000000000000000000000000000000000000000000000000000000000000000000000000000000000000000000000000000000000000000000000000000000000000000000000000000000000000000000000000000000000000000000000000000000000000000000000000000000000000000000000000000000000000000000000000000000000000000000000000",
      "type": "0x0",
      "transactionHash": "0x8d1f3f8ebfb2d79fc300dae359b015af1b49a93320896253d20c5a99390d07a6",
      "transactionIndex": "0x1",
      "blockHash": "0x88c135c6a8b78c31b2a4086bc467639f52efa8cd14971a8bfc3a6905cc5a378d",
      "blockNumber": "0x3075bbc",
      "gasUsed": "0x724e",
      "effectiveGasPrice": "0x5d22cfc40",
      "from": "0x020f19bae8af4339d707fbdaa09c454e5d13aee2",
      "to": "0x59a85c1ef49fa7ddcbdf11d90b250a1daa3e63d1",
      "contractAddress": null,
      "l1BaseFeeScalar": "0x0",
      "l1BlobBaseFee": "0x1",
      "l1BlobBaseFeeScalar": "0x0",
      "l1Fee": "0x0",
      "l1GasPrice": "0xb249",
      "l1GasUsed": "0x640"
    },
    {
      "status": "0x1",
      "cumulativeGasUsed": "0x1f004",
      "logs": [
        {
          "address": "0x32e08557b14fad8908025619797221281d439071",
          "topics": [
            "0xddf252ad1be2c89b69c2b068fc378daa952ba7f163c4a11628f55a4df523b3ef",
            "0x000000000000000000000000020f19bae8af4339d707fbdaa09c454e5d13aee2",
            "0x00000000000000000000000059a85c1ef49fa7ddcbdf11d90b250a1daa3e63d1"
          ],
          "data": "0x0000000000000000000000000000000000000000000000004563918244f40000",
          "blockHash": "0x88c135c6a8b78c31b2a4086bc467639f52efa8cd14971a8bfc3a6905cc5a378d",
          "blockNumber": "0x3075bbc",
          "transactionHash": "0xcb0749f7a881ebf940642441454113972cc40131dfeb54e1a36f65f6070b4276",
          "transactionIndex": "0x2",
          "logIndex": "0x0",
          "removed": false
        }
      ],
      "logsBloom": "0x00010000000000000000000000000000400000000000000000000000000000000000000000000000000000000000000000000000000000000000000000000000000000000000000000000008000000000000000000000000000000000000000000004000000000000000000100000000000000000000000000000010000000000000000008000000000000000000000000000000000000000000000000000000000000000000000000000000000000000000000000000000000000000000000000000002000000000004000000000000000000000000000022000000000000000000000000000000000000000000000000000000000000000000080000000000",
      "type": "0x0",
      "transactionHash": "0xcb0749f7a881ebf940642441454113972cc40131dfeb54e1a36f65f6070b4276",
      "transactionIndex": "0x2",
      "blockHash": "0x88c135c6a8b78c31b2a4086bc467639f52efa8cd14971a8bfc3a6905cc5a378d",
      "blockNumber": "0x3075bbc",
      "gasUsed": "0xc9ca",
      "effectiveGasPrice": "0x5d22cfc40",
      "from": "0x020f19bae8af4339d707fbdaa09c454e5d13aee2",
      "to": "0x32e08557b14fad8908025619797221281d439071",
      "contractAddress": null,
      "l1BaseFeeScalar": "0x0",
      "l1BlobBaseFee": "0x1",
      "l1BlobBaseFeeScalar": "0x0",
      "l1Fee": "0x0",
      "l1GasPrice": "0xb249",
      "l1GasUsed": "0x640"
    },
    {
      "status": "0x1",
      "cumulativeGasUsed": "0x466de",
      "logs": [
        {
          "address": "0x32e08557b14fad8908025619797221281d439071",
          "topics": [
            "0x8c5be1e5ebec7d5bd14f71427d1e84f3dd0314c0f7b2291e5b200ac8c7c3b925",
            "0x00000000000000000000000059a85c1ef49fa7ddcbdf11d90b250a1daa3e63d1",
            "0x000000000000000000000000b00e95b773528e2ea724db06b75113f239d15dca"
          ],
          "data": "0x000000000000000000000000000000000000000000000000007d1d69cee75ba4",
          "blockHash": "0x88c135c6a8b78c31b2a4086bc467639f52efa8cd14971a8bfc3a6905cc5a378d",
          "blockNumber": "0x3075bbc",
          "transactionHash": "0xba0b3189910f4b75f0a96200c0b9e42cbf30b5d923d9922f9a36d3ff52b86418",
          "transactionIndex": "0x3",
          "logIndex": "0x1",
          "removed": false
        },
        {
          "address": "0x32e08557b14fad8908025619797221281d439071",
          "topics": [
            "0xddf252ad1be2c89b69c2b068fc378daa952ba7f163c4a11628f55a4df523b3ef",
            "0x00000000000000000000000059a85c1ef49fa7ddcbdf11d90b250a1daa3e63d1",
            "0x00000000000000000000000068a4f57a499563192c606a898baf503a43fcdb4d"
          ],
          "data": "0x000000000000000000000000000000000000000000000000007d1d69cee75ba4",
          "blockHash": "0x88c135c6a8b78c31b2a4086bc467639f52efa8cd14971a8bfc3a6905cc5a378d",
          "blockNumber": "0x3075bbc",
          "transactionHash": "0xba0b3189910f4b75f0a96200c0b9e42cbf30b5d923d9922f9a36d3ff52b86418",
          "transactionIndex": "0x3",
          "logIndex": "0x2",
          "removed": false
        },
        {
          "address": "0x32e08557b14fad8908025619797221281d439071",
          "topics": [
            "0x8c5be1e5ebec7d5bd14f71427d1e84f3dd0314c0f7b2291e5b200ac8c7c3b925",
            "0x00000000000000000000000059a85c1ef49fa7ddcbdf11d90b250a1daa3e63d1",
            "0x000000000000000000000000b00e95b773528e2ea724db06b75113f239d15dca"
          ],
          "data": "0x0000000000000000000000000000000000000000000000000000000000000000",
          "blockHash": "0x88c135c6a8b78c31b2a4086bc467639f52efa8cd14971a8bfc3a6905cc5a378d",
          "blockNumber": "0x3075bbc",
          "transactionHash": "0xba0b3189910f4b75f0a96200c0b9e42cbf30b5d923d9922f9a36d3ff52b86418",
          "transactionIndex": "0x3",
          "logIndex": "0x3",
          "removed": false
        },
        {
          "address": "0x68a4f57a499563192c606a898baf503a43fcdb4d",
          "topics": [
            "0xd0c3c799bf9e2639de44391e7f524d229b2b55f5b1ea94b2bf7da42f7243dddd"
          ],
          "data": "0x0000000000000000000000000000000000000000000000000000000000000020000000000000000000000000000000000000000000000000314b66b9a0a5001a00000000000000000000000059a85c1ef49fa7ddcbdf11d90b250a1daa3e63d100000000000000000000000098f65d5d44d261031e4b5b65e53eface2b96a4dc000000000000000000000000000000000000000000000000000000000000013800000000000000000000000000000000000000000000000000000000000493e00000000000000000000000000000000000000000000000000000000000000000000000000000000000000000000000000000000000000000000000000000000000000000000000000000000032e08557b14fad8908025619797221281d439071000000000000000000000000000000000000000000000000007d1d69cee75ba400000000000000000000000000000000000000000000000000000000000001a000000000000000000000000000000000000000000000000000000000000003e000000000000000000000000000000000000000000000000000000000000004008b438468c351c91266ca1e0a098d10a22f47c56e1719c682f62d13dbf2fbdad900000000000000000000000000000000000000000000000000000000000002200000000000000000000000000000000000000000000000000000000000000020000000000000000000000000000000000000000000000000000000000001e24000000000000000000000000000000000000000000000000000000000000000c0000000000000000000000000000000000000000000000000000000000000014000000000000000000000000000000000000000000000000000000000000001800000000000000000000000000000000000000000000000000000000000000abc000000000000000000000000000000000000000000000000000000006869e074000000000000000000000000000000000000000000000000000000000000000100000000000000000000000000000000000000000000000000000000000000200000000000000000000000000000000000000000000000000000000000000006706174616c6f000000000000000000000000000000000000000000000000000000000000000000000000000000000000000000000000000000000000000000024652000000000000000000000000000000000000000000000000000000000000000000000000000000000000000000000000000000000000000000000000006000000000000000000000000000000000000000000000000000000000000000200000000000000000000000000000000000000000000000000000000000000007616464726573730000000000000000000000000000000000000000000000000000000000000000000000000000000000000000000000000000000000000000000000000000000000000000000000000000000000000000000000000000000000",
          "blockHash": "0x88c135c6a8b78c31b2a4086bc467639f52efa8cd14971a8bfc3a6905cc5a378d",
          "blockNumber": "0x3075bbc",
          "transactionHash": "0xba0b3189910f4b75f0a96200c0b9e42cbf30b5d923d9922f9a36d3ff52b86418",
          "transactionIndex": "0x3",
          "logIndex": "0x4",
          "removed": false
        },
        {
          "address": "0x59a85c1ef49fa7ddcbdf11d90b250a1daa3e63d1",
          "topics": [
            "0xb11012e0ed9c0fecea0c547ebbcb3656b3946dc722d3c9e7ebdec6ecaf91b21f",
            "0x8b438468c351c91266ca1e0a098d10a22f47c56e1719c682f62d13dbf2fbdad9",
            "0x000000000000000000000000000000000000000000000000de41ba4fc9d91ad9"
          ],
          "data": "0x00000000000000000000000098f65d5d44d261031e4b5b65e53eface2b96a4dc000000000000000000000000000000000000000000000000000000000001e240000000000000000000000000000000000000000000000000007d1d69cee75ba4",
          "blockHash": "0x88c135c6a8b78c31b2a4086bc467639f52efa8cd14971a8bfc3a6905cc5a378d",
          "blockNumber": "0x3075bbc",
          "transactionHash": "0xba0b3189910f4b75f0a96200c0b9e42cbf30b5d923d9922f9a36d3ff52b86418",
          "transactionIndex": "0x3",
          "logIndex": "0x5",
          "removed": false
        }
      ],
      "logsBloom": "0x00010000000000004000000000000000000000000000000000000000000000000000000000004000000000000000000000000000000000000000000000204000000000000044000000000008000008000000000000000000000000000000000000000000000002000000000100010000100080000080000000000010002000000000000008000000000000000000000000002020000000000000000000000000020000000000020400000000020800000000000000000000000100000000000000000002000000000024000000000000000000000000000020000800100000000010000000000000000000000000000004000000000000000000080000000000",
      "type": "0x0",
      "transactionHash": "0xba0b3189910f4b75f0a96200c0b9e42cbf30b5d923d9922f9a36d3ff52b86418",
      "transactionIndex": "0x3",
      "blockHash": "0x88c135c6a8b78c31b2a4086bc467639f52efa8cd14971a8bfc3a6905cc5a378d",
      "blockNumber": "0x3075bbc",
      "gasUsed": "0x276da",
      "effectiveGasPrice": "0x5d22cfc40",
      "from": "0x020f19bae8af4339d707fbdaa09c454e5d13aee2",
      "to": "0x59a85c1ef49fa7ddcbdf11d90b250a1daa3e63d1",
      "contractAddress": null,
      "l1BaseFeeScalar": "0x0",
      "l1BlobBaseFee": "0x1",
      "l1BlobBaseFeeScalar": "0x0",
      "l1Fee": "0x0",
      "l1GasPrice": "0xb249",
      "l1GasUsed": "0x9d5"
    }
  ],
  "libraries": [],
  "pending": [],
  "returns": {},
  "timestamp": 1751769205,
  "chain": 44787,
  "commit": "5835c7d"
}