{
  "transactions": [
    {
      "hash": "0xca8049bbe89a92d208e3aadceead12bd65ba1b81d00e4bcca30c12d47ac06c82",
      "transactionType": "CALL",
      "contractName": null,
      "contractAddress": "0x02cb960aeacb8325da67ee3f34d82b5ac84eb8cb",
      "function": "setDestinationReceiver(uint64,address)",
      "arguments": [
        "16015286601757825753",
        "0xadF2E96d1E68Ef450E0a6c0a16bF75F37D2217E8"
      ],
      "transaction": {
        "from": "0x020f19bae8af4339d707fbdaa09c454e5d13aee2",
        "to": "0x02cb960aeacb8325da67ee3f34d82b5ac84eb8cb",
        "gas": "0x9e00",
        "value": "0x0",
        "input": "0x51617ffe000000000000000000000000000000000000000000000000de41ba4fc9d91ad9000000000000000000000000adf2e96d1e68ef450e0a6c0a16bf75f37d2217e8",
        "nonce": "0x1b",
        "chainId": "0xaef3"
      },
      "additionalContracts": [],
      "isFixedGasLimit": false
    },
    {
      "hash": "0x92da8c6d4190c4bc9c2a7c960857e9ce01f9e49d31a18343a3cf077a965c1147",
      "transactionType": "CALL",
      "contractName": null,
      "contractAddress": "0x32e08557b14fad8908025619797221281d439071",
      "function": "transfer(address,uint256)",
      "arguments": [
        "0x02CB960aEaCb8325Da67ee3f34D82B5AC84EB8CB",
        "2000000000000000000"
      ],
      "transaction": {
        "from": "0x020f19bae8af4339d707fbdaa09c454e5d13aee2",
        "to": "0x32e08557b14fad8908025619797221281d439071",
        "gas": "0x1271d",
        "value": "0x0",
        "input": "0xa9059cbb00000000000000000000000002cb960aeacb8325da67ee3f34d82b5ac84eb8cb0000000000000000000000000000000000000000000000001bc16d674ec80000",
        "nonce": "0x1c",
        "chainId": "0xaef3"
      },
      "additionalContracts": [],
      "isFixedGasLimit": false
    },
    {
      "hash": "0x51208cc2ea77f2ccc5b8b8f5b1b4a7e0f93cf2413eacbfc1ef1da0e6f6fdba69",
      "transactionType": "CALL",
      "contractName": null,
      "contractAddress": "0x02cb960aeacb8325da67ee3f34d82b5ac84eb8cb",
      "function": "manualSendVerification(uint256,string[],string,uint256[],address,uint64)",
      "arguments": [
        "123456",
        "[patalo]",
        "FR",
        "[0, 1, 2]",
        "0x0000000000000000000000000000000000000aBc",
        "16015286601757825753"
      ],
      "transaction": {
        "from": "0x020f19bae8af4339d707fbdaa09c454e5d13aee2",
        "to": "0x02cb960aeacb8325da67ee3f34d82b5ac84eb8cb",
        "gas": "0x36e3d",
        "value": "0x0",
        "input": "0x36903b54000000000000000000000000000000000000000000000000000000000001e24000000000000000000000000000000000000000000000000000000000000000c0000000000000000000000000000000000000000000000000000000000000014000000000000000000000000000000000000000000000000000000000000001800000000000000000000000000000000000000000000000000000000000000abc000000000000000000000000000000000000000000000000de41ba4fc9d91ad9000000000000000000000000000000000000000000000000000000000000000100000000000000000000000000000000000000000000000000000000000000200000000000000000000000000000000000000000000000000000000000000006706174616c6f0000000000000000000000000000000000000000000000000000000000000000000000000000000000000000000000000000000000000000000246520000000000000000000000000000000000000000000000000000000000000000000000000000000000000000000000000000000000000000000000000003000000000000000000000000000000000000000000000000000000000000000000000000000000000000000000000000000000000000000000000000000000010000000000000000000000000000000000000000000000000000000000000002",
        "nonce": "0x1d",
        "chainId": "0xaef3"
      },
      "additionalContracts": [],
      "isFixedGasLimit": false
    }
  ],
  "receipts": [
    {
      "status": "0x1",
      "cumulativeGasUsed": "0x12650",
      "logs": [],
      "logsBloom": "0x00000000000000000000000000000000000000000000000000000000000000000000000000000000000000000000000000000000000000000000000000000000000000000000000000000000000000000000000000000000000000000000000000000000000000000000000000000000000000000000000000000000000000000000000000000000000000000000000000000000000000000000000000000000000000000000000000000000000000000000000000000000000000000000000000000000000000000000000000000000000000000000000000000000000000000000000000000000000000000000000000000000000000000000000000000000",
      "type": "0x0",
      "transactionHash": "0xca8049bbe89a92d208e3aadceead12bd65ba1b81d00e4bcca30c12d47ac06c82",
      "transactionIndex": "0x1",
      "blockHash": "0xc1bf449648d7191dd1b42b7a351fa0bfa008f1cb95cea1608cf8075cfe47c7d2",
      "blockNumber": "0x30738a2",
      "gasUsed": "0x7264",
      "effectiveGasPrice": "0x5d22cfc40",
      "from": "0x020f19bae8af4339d707fbdaa09c454e5d13aee2",
      "to": "0x02cb960aeacb8325da67ee3f34d82b5ac84eb8cb",
      "contractAddress": null,
      "l1BaseFeeScalar": "0x0",
      "l1BlobBaseFee": "0x1",
      "l1BlobBaseFeeScalar": "0x0",
      "l1Fee": "0x0",
      "l1GasPrice": "0x4e17",
      "l1GasUsed": "0x640"
    },
    {
      "status": "0x1",
      "cumulativeGasUsed": "0x1f01a",
      "logs": [
        {
          "address": "0x32e08557b14fad8908025619797221281d439071",
          "topics": [
            "0xddf252ad1be2c89b69c2b068fc378daa952ba7f163c4a11628f55a4df523b3ef",
            "0x000000000000000000000000020f19bae8af4339d707fbdaa09c454e5d13aee2",
            "0x00000000000000000000000002cb960aeacb8325da67ee3f34d82b5ac84eb8cb"
          ],
          "data": "0x0000000000000000000000000000000000000000000000001bc16d674ec80000",
          "blockHash": "0xc1bf449648d7191dd1b42b7a351fa0bfa008f1cb95cea1608cf8075cfe47c7d2",
          "blockNumber": "0x30738a2",
          "transactionHash": "0x92da8c6d4190c4bc9c2a7c960857e9ce01f9e49d31a18343a3cf077a965c1147",
          "transactionIndex": "0x2",
          "logIndex": "0x0",
          "removed": false
        }
      ],
      "logsBloom": "0x00000000000000000000000000000000400000000000000000000010000000000000000000000000000000000000000000000000000000000000000000000000000000000000000000000008000000000000000000000000000000000000000000004000000000000000000100000000000000000000000000000010000000000000000000000000000000000000000002000000000000000000000000000000000000000000000000000000000000000000000000000000000000000000000000000002000000000000800000000000000000000000000022000000000000000000000000000000000000000000000000000000000000000000080000000000",
      "type": "0x0",
      "transactionHash": "0x92da8c6d4190c4bc9c2a7c960857e9ce01f9e49d31a18343a3cf077a965c1147",
      "transactionIndex": "0x2",
      "blockHash": "0xc1bf449648d7191dd1b42b7a351fa0bfa008f1cb95cea1608cf8075cfe47c7d2",
      "blockNumber": "0x30738a2",
      "gasUsed": "0xc9ca",
      "effectiveGasPrice": "0x5d22cfc40",
      "from": "0x020f19bae8af4339d707fbdaa09c454e5d13aee2",
      "to": "0x32e08557b14fad8908025619797221281d439071",
      "contractAddress": null,
      "l1BaseFeeScalar": "0x0",
      "l1BlobBaseFee": "0x1",
      "l1BlobBaseFeeScalar": "0x0",
      "l1Fee": "0x0",
      "l1GasPrice": "0x4e17",
      "l1GasUsed": "0x640"
    },
    {
      "status": "0x1",
      "cumulativeGasUsed": "0x46bef",
      "logs": [
        {
          "address": "0x32e08557b14fad8908025619797221281d439071",
          "topics": [
            "0x8c5be1e5ebec7d5bd14f71427d1e84f3dd0314c0f7b2291e5b200ac8c7c3b925",
            "0x00000000000000000000000002cb960aeacb8325da67ee3f34d82b5ac84eb8cb",
            "0x000000000000000000000000b00e95b773528e2ea724db06b75113f239d15dca"
          ],
          "data": "0x0000000000000000000000000000000000000000000000000079df5a63efd710",
          "blockHash": "0xc1bf449648d7191dd1b42b7a351fa0bfa008f1cb95cea1608cf8075cfe47c7d2",
          "blockNumber": "0x30738a2",
          "transactionHash": "0x51208cc2ea77f2ccc5b8b8f5b1b4a7e0f93cf2413eacbfc1ef1da0e6f6fdba69",
          "transactionIndex": "0x3",
          "logIndex": "0x1",
          "removed": false
        },
        {
          "address": "0x32e08557b14fad8908025619797221281d439071",
          "topics": [
            "0xddf252ad1be2c89b69c2b068fc378daa952ba7f163c4a11628f55a4df523b3ef",
            "0x00000000000000000000000002cb960aeacb8325da67ee3f34d82b5ac84eb8cb",
            "0x00000000000000000000000068a4f57a499563192c606a898baf503a43fcdb4d"
          ],
          "data": "0x0000000000000000000000000000000000000000000000000079df5a63efd710",
          "blockHash": "0xc1bf449648d7191dd1b42b7a351fa0bfa008f1cb95cea1608cf8075cfe47c7d2",
          "blockNumber": "0x30738a2",
          "transactionHash": "0x51208cc2ea77f2ccc5b8b8f5b1b4a7e0f93cf2413eacbfc1ef1da0e6f6fdba69",
          "transactionIndex": "0x3",
          "logIndex": "0x2",
          "removed": false
        },
        {
          "address": "0x32e08557b14fad8908025619797221281d439071",
          "topics": [
            "0x8c5be1e5ebec7d5bd14f71427d1e84f3dd0314c0f7b2291e5b200ac8c7c3b925",
            "0x00000000000000000000000002cb960aeacb8325da67ee3f34d82b5ac84eb8cb",
            "0x000000000000000000000000b00e95b773528e2ea724db06b75113f239d15dca"
          ],
          "data": "0x0000000000000000000000000000000000000000000000000000000000000000",
          "blockHash": "0xc1bf449648d7191dd1b42b7a351fa0bfa008f1cb95cea1608cf8075cfe47c7d2",
          "blockNumber": "0x30738a2",
          "transactionHash": "0x51208cc2ea77f2ccc5b8b8f5b1b4a7e0f93cf2413eacbfc1ef1da0e6f6fdba69",
          "transactionIndex": "0x3",
          "logIndex": "0x3",
          "removed": false
        },
        {
          "address": "0x68a4f57a499563192c606a898baf503a43fcdb4d",
          "topics": [
            "0xd0c3c799bf9e2639de44391e7f524d229b2b55f5b1ea94b2bf7da42f7243dddd"
          ],
          "data": "0x0000000000000000000000000000000000000000000000000000000000000020000000000000000000000000000000000000000000000000314b66b9a0a5001a00000000000000000000000002cb960aeacb8325da67ee3f34d82b5ac84eb8cb000000000000000000000000adf2e96d1e68ef450e0a6c0a16bf75f37d2217e8000000000000000000000000000000000000000000000000000000000000013700000000000000000000000000000000000000000000000000000000000493e00000000000000000000000000000000000000000000000000000000000000000000000000000000000000000000000000000000000000000000000000000000000000000000000000000000032e08557b14fad8908025619797221281d4390710000000000000000000000000000000000000000000000000079df5a63efd71000000000000000000000000000000000000000000000000000000000000001a000000000000000000000000000000000000000000000000000000000000003e000000000000000000000000000000000000000000000000000000000000004004218c971beb1c963378d7a26911c207a65cd34d355f5e5d00f6b40a620be30be00000000000000000000000000000000000000000000000000000000000002200000000000000000000000000000000000000000000000000000000000000020000000000000000000000000000000000000000000000000000000000001e24000000000000000000000000000000000000000000000000000000000000000c0000000000000000000000000000000000000000000000000000000000000014000000000000000000000000000000000000000000000000000000000000001800000000000000000000000000000000000000000000000000000000000000abc000000000000000000000000000000000000000000000000000000006869bd5a000000000000000000000000000000000000000000000000000000000000000100000000000000000000000000000000000000000000000000000000000000200000000000000000000000000000000000000000000000000000000000000006706174616c6f000000000000000000000000000000000000000000000000000000000000000000000000000000000000000000000000000000000000000000024652000000000000000000000000000000000000000000000000000000000000000000000000000000000000000000000000000000000000000000000000000300000000000000000000000000000000000000000000000000000000000000000000000000000000000000000000000000000000000000000000000000000001000000000000000000000000000000000000000000000000000000000000000200000000000000000000000000000000000000000000000000000000000000000000000000000000000000000000000000000000000000000000000000000000",
          "blockHash": "0xc1bf449648d7191dd1b42b7a351fa0bfa008f1cb95cea1608cf8075cfe47c7d2",
          "blockNumber": "0x30738a2",
          "transactionHash": "0x51208cc2ea77f2ccc5b8b8f5b1b4a7e0f93cf2413eacbfc1ef1da0e6f6fdba69",
          "transactionIndex": "0x3",
          "logIndex": "0x4",
          "removed": false
        },
        {
          "address": "0x02cb960aeacb8325da67ee3f34d82b5ac84eb8cb",
          "topics": [
            "0xb11012e0ed9c0fecea0c547ebbcb3656b3946dc722d3c9e7ebdec6ecaf91b21f",
            "0x4218c971beb1c963378d7a26911c207a65cd34d355f5e5d00f6b40a620be30be",
            "0x000000000000000000000000000000000000000000000000de41ba4fc9d91ad9"
          ],
          "data": "0x000000000000000000000000adf2e96d1e68ef450e0a6c0a16bf75f37d2217e8000000000000000000000000000000000000000000000000000000000001e2400000000000000000000000000000000000000000000000000079df5a63efd710",
          "blockHash": "0xc1bf449648d7191dd1b42b7a351fa0bfa008f1cb95cea1608cf8075cfe47c7d2",
          "blockNumber": "0x30738a2",
          "transactionHash": "0x51208cc2ea77f2ccc5b8b8f5b1b4a7e0f93cf2413eacbfc1ef1da0e6f6fdba69",
          "transactionIndex": "0x3",
          "logIndex": "0x5",
          "removed": false
        }
      ],
      "logsBloom": "0x00000000000000004000000000000000000000000000000000000010000000000000000000004000000000000010000000000000000100000000000000204000000000000044000000000008000008000000000000000002000000000000000000000000000000000000800100010000100000000080000000000010002000000000000000000000000000000000000002000020000000000000000000000000020000000000000400000000020800000000000000000000000100000000000000000002000000000020800000000000000000000000000020000000100000000010000000000000000000000000000004000000000000000000180000020000",
      "type": "0x0",
      "transactionHash": "0x51208cc2ea77f2ccc5b8b8f5b1b4a7e0f93cf2413eacbfc1ef1da0e6f6fdba69",
      "transactionIndex": "0x3",
      "blockHash": "0xc1bf449648d7191dd1b42b7a351fa0bfa008f1cb95cea1608cf8075cfe47c7d2",
      "blockNumber": "0x30738a2",
      "gasUsed": "0x27bd5",
      "effectiveGasPrice": "0x5d22cfc40",
      "from": "0x020f19bae8af4339d707fbdaa09c454e5d13aee2",
      "to": "0x02cb960aeacb8325da67ee3f34d82b5ac84eb8cb",
      "contractAddress": null,
      "l1BaseFeeScalar": "0x0",
      "l1BlobBaseFee": "0x1",
      "l1BlobBaseFeeScalar": "0x0",
      "l1Fee": "0x0",
      "l1GasPrice": "0x4e17",
      "l1GasUsed": "0x927"
    }
  ],
  "libraries": [],
  "pending": [],
  "returns": {},
  "timestamp": 1751760219,
  "chain": 44787,
  "commit": "c5748e1"
}